{
  "contractName": "Invoice",
  "abi": [
    {
      "inputs": [],
      "payable": false,
      "stateMutability": "nonpayable",
      "type": "constructor"
    },
    {
      "anonymous": false,
      "inputs": [
        {
          "indexed": false,
          "internalType": "uint256",
          "name": "nowDue",
          "type": "uint256"
        }
      ],
      "name": "OnDueChange",
      "type": "event"
    },
    {
      "anonymous": false,
      "inputs": [
        {
          "indexed": false,
          "internalType": "uint256",
          "name": "paymentValue",
          "type": "uint256"
        },
        {
          "indexed": false,
          "internalType": "uint256",
          "name": "outstandingAmount",
          "type": "uint256"
        }
      ],
      "name": "OnPayment",
      "type": "event"
    },
    {
      "anonymous": false,
      "inputs": [
        {
          "indexed": false,
          "internalType": "enum Invoice.InvoiceStatus",
          "name": "status",
          "type": "uint8"
        }
      ],
      "name": "OnStatusChange",
      "type": "event"
    },
    {
      "constant": false,
      "inputs": [],
      "name": "destroy",
      "outputs": [],
      "payable": false,
      "stateMutability": "nonpayable",
      "type": "function"
    },
    {
      "constant": false,
      "inputs": [
        {
          "internalType": "string",
          "name": "_invoiceNumber",
          "type": "string"
        },
        {
          "internalType": "address",
          "name": "_ownerConsortium",
          "type": "address"
        },
        {
          "internalType": "address",
          "name": "_targetConsortium",
          "type": "address"
        },
        {
          "internalType": "enum Invoice.CashPolarity",
          "name": "_invoicePolarity",
          "type": "uint8"
        },
        {
          "internalType": "enum Invoice.CashPolarity",
          "name": "_paymentPolarity",
          "type": "uint8"
        },
        {
          "internalType": "uint256",
          "name": "_dueOn",
          "type": "uint256"
        },
        {
          "internalType": "uint256",
          "name": "_invoicedOn",
          "type": "uint256"
        },
        {
          "internalType": "uint256",
          "name": "_invoiceValue",
          "type": "uint256"
        },
        {
          "internalType": "uint256",
          "name": "_taxValue",
          "type": "uint256"
        },
        {
          "internalType": "string",
          "name": "_paymentTerms",
          "type": "string"
        },
        {
          "internalType": "string",
          "name": "_unitOfCharge",
          "type": "string"
        }
      ],
      "name": "SetHeader",
      "outputs": [],
      "payable": false,
      "stateMutability": "nonpayable",
      "type": "function"
    },
    {
      "constant": false,
      "inputs": [
        {
          "internalType": "address",
          "name": "_taskContract",
          "type": "address"
        },
        {
          "internalType": "uint256",
          "name": "_invoiceQuantity",
          "type": "uint256"
        },
        {
          "internalType": "uint256",
          "name": "_invoiceValue",
          "type": "uint256"
        },
        {
          "internalType": "uint256",
          "name": "_taxValue",
          "type": "uint256"
        },
        {
          "internalType": "string",
          "name": "_taxCode",
          "type": "string"
        }
      ],
      "name": "AddTask",
      "outputs": [],
      "payable": false,
      "stateMutability": "nonpayable",
      "type": "function"
    },
    {
      "constant": false,
      "inputs": [
        {
          "internalType": "string",
          "name": "_chargeCode",
          "type": "string"
        },
        {
          "internalType": "string",
          "name": "_chargeDescription",
          "type": "string"
        },
        {
          "internalType": "uint256",
          "name": "_invoiceValue",
          "type": "uint256"
        },
        {
          "internalType": "uint256",
          "name": "_taxValue",
          "type": "uint256"
        },
        {
          "internalType": "string",
          "name": "_taxCode",
          "type": "string"
        }
      ],
      "name": "AddItem",
      "outputs": [],
      "payable": false,
      "stateMutability": "nonpayable",
      "type": "function"
    },
    {
      "constant": true,
      "inputs": [],
      "name": "IsInitialised",
      "outputs": [
        {
          "internalType": "bool",
          "name": "isInitialised",
          "type": "bool"
        }
      ],
      "payable": false,
      "stateMutability": "view",
      "type": "function"
    },
    {
      "constant": true,
      "inputs": [],
      "name": "GetHeader",
      "outputs": [
        {
          "internalType": "string",
          "name": "_invoiceNumber",
          "type": "string"
        },
        {
          "internalType": "address",
          "name": "_ownerConsortium",
          "type": "address"
        },
        {
          "internalType": "address",
          "name": "_targetConsortium",
          "type": "address"
        },
        {
          "internalType": "enum Invoice.CashPolarity",
          "name": "_invoicePolarity",
          "type": "uint8"
        },
        {
          "internalType": "enum Invoice.CashPolarity",
          "name": "_paymentPolarity",
          "type": "uint8"
        },
        {
          "internalType": "string",
          "name": "_paymentTerms",
          "type": "string"
        },
        {
          "internalType": "string",
          "name": "_unitOfCharge",
          "type": "string"
        }
      ],
      "payable": false,
      "stateMutability": "view",
      "type": "function"
    },
    {
      "constant": true,
      "inputs": [],
      "name": "GetParams",
      "outputs": [
        {
          "internalType": "enum Invoice.InvoiceStatus",
          "name": "_status",
          "type": "uint8"
        },
        {
          "internalType": "uint256",
          "name": "_dueOn",
          "type": "uint256"
        },
        {
          "internalType": "uint256",
          "name": "_invoicedOn",
          "type": "uint256"
        },
        {
          "internalType": "uint256",
          "name": "_invoiceValue",
          "type": "uint256"
        },
        {
          "internalType": "uint256",
          "name": "_taxValue",
          "type": "uint256"
        },
        {
          "internalType": "uint256",
          "name": "_paidValue",
          "type": "uint256"
        },
        {
          "internalType": "uint256",
          "name": "_paidTaxValue",
          "type": "uint256"
        }
      ],
      "payable": false,
      "stateMutability": "view",
      "type": "function"
    },
    {
      "constant": true,
      "inputs": [],
      "name": "GetTaskCount",
      "outputs": [
        {
          "internalType": "uint256",
          "name": "_taskCount",
          "type": "uint256"
        }
      ],
      "payable": false,
      "stateMutability": "view",
      "type": "function"
    },
    {
      "constant": true,
      "inputs": [
        {
          "internalType": "uint256",
          "name": "_taskIndex",
          "type": "uint256"
        }
      ],
      "name": "GetTask",
      "outputs": [
        {
          "internalType": "address",
          "name": "_contract",
          "type": "address"
        },
        {
          "internalType": "uint256",
          "name": "_invoiceQuantity",
          "type": "uint256"
        },
        {
          "internalType": "uint256",
          "name": "_invoiceValue",
          "type": "uint256"
        },
        {
          "internalType": "uint256",
          "name": "_taxValue",
          "type": "uint256"
        },
        {
          "internalType": "string",
          "name": "_taxCode",
          "type": "string"
        }
      ],
      "payable": false,
      "stateMutability": "view",
      "type": "function"
    },
    {
      "constant": true,
      "inputs": [],
      "name": "GetItemCount",
      "outputs": [
        {
          "internalType": "uint256",
          "name": "_itemCount",
          "type": "uint256"
        }
      ],
      "payable": false,
      "stateMutability": "view",
      "type": "function"
    },
    {
      "constant": true,
      "inputs": [
        {
          "internalType": "uint256",
          "name": "_itemIndex",
          "type": "uint256"
        }
      ],
      "name": "GetItem",
      "outputs": [
        {
          "internalType": "string",
          "name": "_chargeCode",
          "type": "string"
        },
        {
          "internalType": "string",
          "name": "_chargeDescription",
          "type": "string"
        },
        {
          "internalType": "uint256",
          "name": "_invoiceQuantity",
          "type": "uint256"
        },
        {
          "internalType": "uint256",
          "name": "_invoiceValue",
          "type": "uint256"
        },
        {
          "internalType": "uint256",
          "name": "_taxValue",
          "type": "uint256"
        },
        {
          "internalType": "string",
          "name": "_taxCode",
          "type": "string"
        }
      ],
      "payable": false,
      "stateMutability": "view",
      "type": "function"
    },
    {
      "constant": false,
      "inputs": [
        {
          "internalType": "uint256",
          "name": "_dueOn",
          "type": "uint256"
        }
      ],
      "name": "Reschedule",
      "outputs": [],
      "payable": false,
      "stateMutability": "nonpayable",
      "type": "function"
    },
    {
      "constant": false,
      "inputs": [
        {
          "internalType": "enum Invoice.InvoiceStatus",
          "name": "_status",
          "type": "uint8"
        },
        {
          "internalType": "uint256",
          "name": "_paidValue",
          "type": "uint256"
        },
        {
          "internalType": "uint256",
          "name": "_paidTaxValue",
          "type": "uint256"
        }
      ],
      "name": "Payment",
      "outputs": [],
      "payable": false,
      "stateMutability": "nonpayable",
      "type": "function"
    },
    {
      "constant": false,
      "inputs": [
        {
          "internalType": "enum Invoice.InvoiceStatus",
          "name": "_status",
          "type": "uint8"
        }
      ],
      "name": "StatusChange",
      "outputs": [],
      "payable": false,
      "stateMutability": "nonpayable",
      "type": "function"
    }
  ],
  "bytecode": "0x608060405234801561001057600080fd5b50336000806101000a81548173ffffffffffffffffffffffffffffffffffffffff021916908373ffffffffffffffffffffffffffffffffffffffff1602179055506000600460016101000a81548160ff0219169083600281111561007057fe5b02179055506001600260146101000a81548160ff0219169083600181111561009457fe5b02179055506001600260156101000a81548160ff021916908360018111156100b857fe5b02179055506124f2806100cc6000396000f3fe608060405234801561001057600080fd5b50600436106100ea5760003560e01c80638bb397be1161008c578063c1a9785b11610066578063c1a9785b146107ce578063caf614a414610a3a578063d9ae37c714610a6b578063faf8101d14610bff576100ea565b80638bb397be146104cc578063b35e6d52146106b7578063b4ba11cf146106d5576100ea565b80634d431003116100c85780634d431003146101b857806350675ed6146101d6578063514ebda7146102c557806383197ef0146104c2576100ea565b806315494e9b146100ef5780632d2ba2e6146101345780632d83626f1461018a575b600080fd5b6101326004803603606081101561010557600080fd5b81019080803560ff1690602001909291908035906020019092919080359060200190929190505050610c21565b005b61013c610efb565b6040518088600381111561014c57fe5b60ff16815260200187815260200186815260200185815260200184815260200183815260200182815260200197505050505050505060405180910390f35b6101b6600480360360208110156101a057600080fd5b8101908080359060200190929190505050610fda565b005b6101c061115c565b6040518082815260200191505060405180910390f35b610202600480360360208110156101ec57600080fd5b8101908080359060200190929190505050611169565b604051808673ffffffffffffffffffffffffffffffffffffffff1673ffffffffffffffffffffffffffffffffffffffff16815260200185815260200184815260200183815260200180602001828103825283818151815260200191508051906020019080838360005b8381101561028657808201518184015260208101905061026b565b50505050905090810190601f1680156102b35780820380516001836020036101000a031916815260200191505b50965050505050505060405180910390f35b6104c0600480360360a08110156102db57600080fd5b81019080803590602001906401000000008111156102f857600080fd5b82018360208201111561030a57600080fd5b8035906020019184600183028401116401000000008311171561032c57600080fd5b91908080601f016020809104026020016040519081016040528093929190818152602001838380828437600081840152601f19601f8201169050808301925050505050505091929192908035906020019064010000000081111561038f57600080fd5b8201836020820111156103a157600080fd5b803590602001918460018302840111640100000000831117156103c357600080fd5b91908080601f016020809104026020016040519081016040528093929190818152602001838380828437600081840152601f19601f82011690508083019250505050505050919291929080359060200190929190803590602001909291908035906020019064010000000081111561043a57600080fd5b82018360208201111561044c57600080fd5b8035906020019184600183028401116401000000008311171561046e57600080fd5b91908080601f016020809104026020016040519081016040528093929190818152602001838380828437600081840152601f19601f82011690508083019250505050505050919291929050505061138d565b005b6104ca611561565b005b6104d4611640565b60405180806020018873ffffffffffffffffffffffffffffffffffffffff1673ffffffffffffffffffffffffffffffffffffffff1681526020018773ffffffffffffffffffffffffffffffffffffffff1673ffffffffffffffffffffffffffffffffffffffff16815260200186600181111561054c57fe5b60ff16815260200185600181111561056057fe5b60ff168152602001806020018060200184810384528b818151815260200191508051906020019080838360005b838110156105a857808201518184015260208101905061058d565b50505050905090810190601f1680156105d55780820380516001836020036101000a031916815260200191505b50848103835286818151815260200191508051906020019080838360005b8381101561060e5780820151818401526020810190506105f3565b50505050905090810190601f16801561063b5780820380516001836020036101000a031916815260200191505b50848103825285818151815260200191508051906020019080838360005b83811015610674578082015181840152602081019050610659565b50505050905090810190601f1680156106a15780820380516001836020036101000a031916815260200191505b509a505050505050505050505060405180910390f35b6106bf611935565b6040518082815260200191505060405180910390f35b6107cc600480360360a08110156106eb57600080fd5b81019080803573ffffffffffffffffffffffffffffffffffffffff1690602001909291908035906020019092919080359060200190929190803590602001909291908035906020019064010000000081111561074657600080fd5b82018360208201111561075857600080fd5b8035906020019184600183028401116401000000008311171561077a57600080fd5b91908080601f016020809104026020016040519081016040528093929190818152602001838380828437600081840152601f19601f820116905080830192505050505050509192919290505050611942565b005b610a3860048036036101608110156107e557600080fd5b810190808035906020019064010000000081111561080257600080fd5b82018360208201111561081457600080fd5b8035906020019184600183028401116401000000008311171561083657600080fd5b91908080601f016020809104026020016040519081016040528093929190818152602001838380828437600081840152601f19601f820116905080830192505050505050509192919290803573ffffffffffffffffffffffffffffffffffffffff169060200190929190803573ffffffffffffffffffffffffffffffffffffffff169060200190929190803560ff169060200190929190803560ff169060200190929190803590602001909291908035906020019092919080359060200190929190803590602001909291908035906020019064010000000081111561091b57600080fd5b82018360208201111561092d57600080fd5b8035906020019184600183028401116401000000008311171561094f57600080fd5b91908080601f016020809104026020016040519081016040528093929190818152602001838380828437600081840152601f19601f820116905080830192505050505050509192919290803590602001906401000000008111156109b257600080fd5b8201836020820111156109c457600080fd5b803590602001918460018302840111640100000000831117156109e657600080fd5b91908080601f016020809104026020016040519081016040528093929190818152602001838380828437600081840152601f19601f820116905080830192505050505050509192919290505050611b48565b005b610a6960048036036020811015610a5057600080fd5b81019080803560ff169060200190929190505050611dc6565b005b610a9760048036036020811015610a8157600080fd5b8101908080359060200190929190505050611f81565b6040518080602001806020018781526020018681526020018581526020018060200184810384528a818151815260200191508051906020019080838360005b83811015610af1578082015181840152602081019050610ad6565b50505050905090810190601f168015610b1e5780820380516001836020036101000a031916815260200191505b50848103835289818151815260200191508051906020019080838360005b83811015610b57578082015181840152602081019050610b3c565b50505050905090810190601f168015610b845780820380516001836020036101000a031916815260200191505b50848103825285818151815260200191508051906020019080838360005b83811015610bbd578082015181840152602081019050610ba2565b50505050905090810190601f168015610bea5780820380516001836020036101000a031916815260200191505b50995050505050505050505060405180910390f35b610c0761222e565b604051808215151515815260200191505060405180910390f35b6000809054906101000a900473ffffffffffffffffffffffffffffffffffffffff1673ffffffffffffffffffffffffffffffffffffffff163373ffffffffffffffffffffffffffffffffffffffff1614610cc6576040517f08c379a000000000000000000000000000000000000000000000000000000000815260040180806020018281038252602e815260200180612490602e913960400191505060405180910390fd5b60006002811115610cd357fe5b600460019054906101000a900460ff166002811115610cee57fe5b1415610d62576040517f08c379a000000000000000000000000000000000000000000000000000000000815260040180806020018281038252600f8152602001807f4e6f7420636f6e6669677572656421000000000000000000000000000000000081525060200191505060405180910390fd5b6000610d9f82610d9185610d83600c54600b5461225d90919063ffffffff16565b61225d90919063ffffffff16565b61225d90919063ffffffff16565b9050610db8600a5460095461225d90919063ffffffff16565b811115610e10576040517f08c379a00000000000000000000000000000000000000000000000000000000081526004018080602001828103825260288152602001806124686028913960400191505060405180910390fd5b610e2583600b5461225d90919063ffffffff16565b600b81905550610e4082600c5461225d90919063ffffffff16565b600c819055507fb910ad1a904e6b93c1dd63490b406f9f34a1a557a805849ef3fc062b829c9c50610e7a838561225d90919063ffffffff16565b610ea383610e95600a5460095461225d90919063ffffffff16565b61228590919063ffffffff16565b604051808381526020018281526020019250505060405180910390a1600460009054906101000a900460ff166003811115610eda57fe5b846003811115610ee657fe5b14610ef557610ef484611dc6565b5b50505050565b6000806000806000806000806002811115610f1257fe5b600460019054906101000a900460ff166002811115610f2d57fe5b1415610fa1576040517f08c379a00000000000000000000000000000000000000000000000000000000081526004018080602001828103825260088152602001807f4e6f74207365742100000000000000000000000000000000000000000000000081525060200191505060405180910390fd5b600460009054906101000a900460ff169650600854955060075494506009549350600a549250600b549150600c54905090919293949596565b6000809054906101000a900473ffffffffffffffffffffffffffffffffffffffff1673ffffffffffffffffffffffffffffffffffffffff163373ffffffffffffffffffffffffffffffffffffffff161461107f576040517f08c379a000000000000000000000000000000000000000000000000000000000815260040180806020018281038252602e815260200180612490602e913960400191505060405180910390fd5b6000600281111561108c57fe5b600460019054906101000a900460ff1660028111156110a757fe5b141561111b576040517f08c379a000000000000000000000000000000000000000000000000000000000815260040180806020018281038252600f8152602001807f4e6f7420636f6e6669677572656421000000000000000000000000000000000081525060200191505060405180910390fd5b806008819055507f0453176aa5601d8c9c77d4318bfb6ef8636fc3805bf5261e01373f04f766daf2816040518082815260200191505060405180910390a150565b6000600e80549050905090565b600080600080606060028081111561117d57fe5b600460019054906101000a900460ff16600281111561119857fe5b1480156111a95750600d8054905086105b61121b576040517f08c379a00000000000000000000000000000000000000000000000000000000081526004018080602001828103825260178152602001807f5461736b2063616e6e6f74206265206c6f63617465642100000000000000000081525060200191505060405180910390fd5b600d868154811061122857fe5b906000526020600020906005020160000160009054906101000a900473ffffffffffffffffffffffffffffffffffffffff169450600d868154811061126957fe5b9060005260206000209060050201600101600001549350600d868154811061128d57fe5b9060005260206000209060050201600101600101549250600d86815481106112b157fe5b9060005260206000209060050201600101600201549150600d86815481106112d557fe5b90600052602060002090600502016001016003018054600181600116156101000203166002900480601f01602080910402602001604051908101604052809291908181526020018280546001816001161561010002031660029004801561137d5780601f106113525761010080835404028352916020019161137d565b820191906000526020600020905b81548152906001019060200180831161136057829003601f168201915b5050505050905091939590929450565b6000809054906101000a900473ffffffffffffffffffffffffffffffffffffffff1673ffffffffffffffffffffffffffffffffffffffff163373ffffffffffffffffffffffffffffffffffffffff1614611432576040517f08c379a000000000000000000000000000000000000000000000000000000000815260040180806020018281038252602e815260200180612490602e913960400191505060405180910390fd5b61143a61229c565b85816000018190525084816020018190525060008160400151600001818152505083816040015160200181815250508281604001516040018181525050818160400151606001819052506002600460016101000a81548160ff021916908360028111156114a357fe5b0217905550600e819080600181540180825580915050906001820390600052602060002090600602016000909192909190915060008201518160000190805190602001906114f29291906122c3565b50602082015181600101908051906020019061150f9291906122c3565b5060408201518160020160008201518160000155602082015181600101556040820151816002015560608201518160030190805190602001906115539291906122c3565b505050505050505050505050565b6000809054906101000a900473ffffffffffffffffffffffffffffffffffffffff1673ffffffffffffffffffffffffffffffffffffffff163373ffffffffffffffffffffffffffffffffffffffff1614611606576040517f08c379a000000000000000000000000000000000000000000000000000000000815260040180806020018281038252602e815260200180612490602e913960400191505060405180910390fd5b6000809054906101000a900473ffffffffffffffffffffffffffffffffffffffff1673ffffffffffffffffffffffffffffffffffffffff16ff5b60606000806000806060806000600281111561165857fe5b600460019054906101000a900460ff16600281111561167357fe5b14156116e7576040517f08c379a00000000000000000000000000000000000000000000000000000000081526004018080602001828103825260088152602001807f4e6f74207365742100000000000000000000000000000000000000000000000081525060200191505060405180910390fd5b60058054600181600116156101000203166002900480601f01602080910402602001604051908101604052809291908181526020018280546001816001161561010002031660029004801561177d5780601f106117525761010080835404028352916020019161177d565b820191906000526020600020905b81548152906001019060200180831161176057829003601f168201915b50505050509650600160009054906101000a900473ffffffffffffffffffffffffffffffffffffffff169550600260009054906101000a900473ffffffffffffffffffffffffffffffffffffffff169450600260149054906101000a900460ff169350600260159054906101000a900460ff16925060068054600181600116156101000203166002900480601f0160208091040260200160405190810160405280929190818152602001828054600181600116156101000203166002900480156118885780601f1061185d57610100808354040283529160200191611888565b820191906000526020600020905b81548152906001019060200180831161186b57829003601f168201915b5050505050915060038054600181600116156101000203166002900480601f0160208091040260200160405190810160405280929190818152602001828054600181600116156101000203166002900480156119255780601f106118fa57610100808354040283529160200191611925565b820191906000526020600020905b81548152906001019060200180831161190857829003601f168201915b5050505050905090919293949596565b6000600d80549050905090565b6000809054906101000a900473ffffffffffffffffffffffffffffffffffffffff1673ffffffffffffffffffffffffffffffffffffffff163373ffffffffffffffffffffffffffffffffffffffff16146119e7576040517f08c379a000000000000000000000000000000000000000000000000000000000815260040180806020018281038252602e815260200180612490602e913960400191505060405180910390fd5b6119ef612343565b85816000019073ffffffffffffffffffffffffffffffffffffffff16908173ffffffffffffffffffffffffffffffffffffffff1681525050848160200151600001818152505083816020015160200181815250508281602001516040018181525050818160200151606001819052506002600460016101000a81548160ff02191690836002811115611a7d57fe5b0217905550600d819080600181540180825580915050906001820390600052602060002090600502016000909192909190915060008201518160000160006101000a81548173ffffffffffffffffffffffffffffffffffffffff021916908373ffffffffffffffffffffffffffffffffffffffff1602179055506020820151816001016000820151816000015560208201518160010155604082015181600201556060820151816003019080519060200190611b3a9291906122c3565b505050505050505050505050565b6000809054906101000a900473ffffffffffffffffffffffffffffffffffffffff1673ffffffffffffffffffffffffffffffffffffffff163373ffffffffffffffffffffffffffffffffffffffff1614611bed576040517f08c379a000000000000000000000000000000000000000000000000000000000815260040180806020018281038252602e815260200180612490602e913960400191505060405180910390fd5b60006002811115611bfa57fe5b600460019054906101000a900460ff166002811115611c1557fe5b1415611c6c576040517f08c379a00000000000000000000000000000000000000000000000000000000081526004018080602001828103825260218152602001806124476021913960400191505060405180910390fd5b8a60059080519060200190611c82929190612379565b5089600160006101000a81548173ffffffffffffffffffffffffffffffffffffffff021916908373ffffffffffffffffffffffffffffffffffffffff16021790555088600260006101000a81548173ffffffffffffffffffffffffffffffffffffffff021916908373ffffffffffffffffffffffffffffffffffffffff16021790555087600260146101000a81548160ff02191690836001811115611d2357fe5b021790555086600260156101000a81548160ff02191690836001811115611d4657fe5b02179055506001600460016101000a81548160ff02191690836002811115611d6a57fe5b021790555085600881905550846007819055508360098190555082600a819055508160069080519060200190611da1929190612379565b508060039080519060200190611db8929190612379565b505050505050505050505050565b6000809054906101000a900473ffffffffffffffffffffffffffffffffffffffff1673ffffffffffffffffffffffffffffffffffffffff163373ffffffffffffffffffffffffffffffffffffffff1614611e6b576040517f08c379a000000000000000000000000000000000000000000000000000000000815260040180806020018281038252602e815260200180612490602e913960400191505060405180910390fd5b60016002811115611e7857fe5b600460019054906101000a900460ff166002811115611e9357fe5b1015611f07576040517f08c379a000000000000000000000000000000000000000000000000000000000815260040180806020018281038252600f8152602001807f4e6f7420636f6e6669677572656421000000000000000000000000000000000081525060200191505060405180910390fd5b80600460006101000a81548160ff02191690836003811115611f2557fe5b02179055507ff356a63ad9a5ef0acd0323a72632c8518f20400d12f024dc969ac9848523bb42600460009054906101000a900460ff1660405180826003811115611f6b57fe5b60ff16815260200191505060405180910390a150565b60608060008060006060600e8781548110611f9857fe5b90600052602060002090600602016000018054600181600116156101000203166002900480601f01602080910402602001604051908101604052809291908181526020018280546001816001161561010002031660029004801561203d5780601f106120125761010080835404028352916020019161203d565b820191906000526020600020905b81548152906001019060200180831161202057829003601f168201915b50505050509550600e878154811061205157fe5b90600052602060002090600602016001018054600181600116156101000203166002900480601f0160208091040260200160405190810160405280929190818152602001828054600181600116156101000203166002900480156120f65780601f106120cb576101008083540402835291602001916120f6565b820191906000526020600020905b8154815290600101906020018083116120d957829003601f168201915b50505050509450600e878154811061210a57fe5b9060005260206000209060060201600201600001549350600e878154811061212e57fe5b9060005260206000209060060201600201600101549250600e878154811061215257fe5b9060005260206000209060060201600201600201549150600e878154811061217657fe5b90600052602060002090600602016002016003018054600181600116156101000203166002900480601f01602080910402602001604051908101604052809291908181526020018280546001816001161561010002031660029004801561221e5780601f106121f35761010080835404028352916020019161221e565b820191906000526020600020905b81548152906001019060200180831161220157829003601f168201915b5050505050905091939550919395565b600060028081111561223c57fe5b600460019054906101000a900460ff16600281111561225757fe5b14905090565b60008082840190508381101580156122755750828110155b61227b57fe5b8091505092915050565b60008282111561229157fe5b818303905092915050565b604051806060016040528060608152602001606081526020016122bd6123f9565b81525090565b828054600181600116156101000203166002900490600052602060002090601f016020900481019282601f1061230457805160ff1916838001178555612332565b82800160010185558215612332579182015b82811115612331578251825591602001919060010190612316565b5b50905061233f9190612421565b5090565b6040518060400160405280600073ffffffffffffffffffffffffffffffffffffffff1681526020016123736123f9565b81525090565b828054600181600116156101000203166002900490600052602060002090601f016020900481019282601f106123ba57805160ff19168380011785556123e8565b828001600101855582156123e8579182015b828111156123e75782518255916020019190600101906123cc565b5b5090506123f59190612421565b5090565b6040518060800160405280600081526020016000815260200160008152602001606081525090565b61244391905b8082111561243f576000816000905550600101612427565b5090565b9056fe496e766f6963652068656164657220697320616c726561647920617369676e65645061796d656e7420657863656564732074686520746f74616c20696e766f6963652076616c7565214f6e6c792074686520636f6e7472616374206f776e65722063616e2063616c6c20746869732066756e6374696f6ea265627a7a723158207861514dab8b5709c6265fe0fb3228103eb0a6e989ed54d66a4346b47a4ab5f464736f6c634300050c0032",
  "source": "/*\r\nTrade Control Network\r\nInvoice contract\r\nAuthor IAM\r\n\r\ngithub.com/tradecontrol/tc-network\r\n\r\nLicence GNU General Public License v3.0\r\nhttps://www.gnu.org/licenses/gpl-3.0.en.html\r\n\r\n*/\r\npragma solidity >=0.4.21 <=0.5.12;\r\n\r\nimport \"./mortal.sol\";\r\nimport \"./lib/SafeMathLib.sol\";\r\n\r\ncontract Invoice is mortal {\r\n    using SafeMathLib for uint;\r\n\r\n    struct Detail {\r\n        uint InvoiceQuantity; // 1 = 0.001\r\n        uint InvoiceValue; // 1 = 0.001\r\n        uint TaxValue;\r\n        string TaxCode;\r\n    }\r\n\r\n    struct Task {\r\n        address Contract;\r\n        Detail Charge;\r\n    }\r\n\r\n    struct Item {\r\n        string ChargeCode;\r\n        string ChargeDescription;\r\n        Detail Charge;\r\n    }\r\n\r\n    enum InvoiceStatus { Pending, Invoiced, PartiallyPaid, Paid }\r\n    enum InvoiceState { Instantiated, Header, Details }\r\n    enum CashPolarity { Expense, Income }\r\n\r\n    address ownerConsortium;\r\n    address targetConsortium;\r\n\r\n    CashPolarity invoicePolarity;\r\n    CashPolarity paymentPolarity;\r\n    string unitOfCharge;\r\n\r\n    InvoiceStatus status;\r\n    InvoiceState state;\r\n\r\n    string invoiceNumber;\r\n    string paymentTerms;\r\n\r\n    uint invoicedOn; // Unix Epoch\r\n    uint dueOn;\r\n\r\n    uint invoiceValue; //1 = 0.01;\r\n    uint taxValue;\r\n    uint paidValue;\r\n    uint paidTaxValue;\r\n\r\n    Task[] tasks;\r\n    Item[] items;\r\n\r\n    event OnPayment (uint paymentValue, uint outstandingAmount);\r\n    event OnStatusChange (InvoiceStatus status);\r\n    event OnDueChange (uint nowDue);\r\n\r\n    constructor () public {\r\n        state = InvoiceState.Instantiated;\r\n        invoicePolarity = CashPolarity.Income;\r\n        paymentPolarity = CashPolarity.Income;\r\n    }\r\n\r\n    // ** initialisation **\r\n    function SetHeader(string memory _invoiceNumber, address _ownerConsortium, address _targetConsortium,\r\n                            CashPolarity _invoicePolarity, CashPolarity _paymentPolarity, uint _dueOn,\r\n                            uint _invoicedOn, uint _invoiceValue, uint _taxValue,\r\n                            string memory _paymentTerms, string memory _unitOfCharge) public onlyOwner {\r\n        require(state != InvoiceState.Instantiated, \"Invoice header is already asigned\");\r\n        invoiceNumber = _invoiceNumber;\r\n        ownerConsortium = _ownerConsortium;\r\n        targetConsortium = _targetConsortium;\r\n        invoicePolarity = _invoicePolarity;\r\n        paymentPolarity = _paymentPolarity;\r\n        state = InvoiceState.Header;\r\n        dueOn = _dueOn;\r\n        invoicedOn = _invoicedOn;\r\n        invoiceValue = _invoiceValue;\r\n        taxValue = _taxValue;\r\n        paymentTerms = _paymentTerms;\r\n        unitOfCharge = _unitOfCharge;\r\n    }\r\n\r\n\r\n    function AddTask(address _taskContract,\r\n            uint _invoiceQuantity, uint _invoiceValue, uint _taxValue, string memory _taxCode) public onlyOwner {\r\n        Task memory task;\r\n        task.Contract = _taskContract;\r\n        task.Charge.InvoiceQuantity = _invoiceQuantity;\r\n        task.Charge.InvoiceValue = _invoiceValue;\r\n        task.Charge.TaxValue = _taxValue;\r\n        task.Charge.TaxCode = _taxCode;\r\n        state = InvoiceState.Details;\r\n        tasks.push(task);\r\n    }\r\n\r\n    function AddItem(string memory _chargeCode, string memory _chargeDescription,\r\n            uint _invoiceValue, uint _taxValue, string memory _taxCode) public onlyOwner {\r\n        Item memory item;\r\n        item.ChargeCode = _chargeCode;\r\n        item.ChargeDescription = _chargeDescription;\r\n        item.Charge.InvoiceQuantity = 0;\r\n        item.Charge.InvoiceValue = _invoiceValue;\r\n        item.Charge.TaxValue = _taxValue;\r\n        item.Charge.TaxCode = _taxCode;\r\n        state = InvoiceState.Details;\r\n        items.push(item);\r\n    }\r\n\r\n    function IsInitialised() public view returns (bool isInitialised) { return (state == InvoiceState.Details); }\r\n\r\n    // ** properties **\r\n    function GetHeader() public view returns (string memory _invoiceNumber,\r\n                address _ownerConsortium, address _targetConsortium,\r\n                CashPolarity _invoicePolarity, CashPolarity _paymentPolarity,\r\n                string memory _paymentTerms, string memory _unitOfCharge) {\r\n        require (state != InvoiceState.Instantiated, \"Not set!\");\r\n        _invoiceNumber = invoiceNumber;\r\n        _ownerConsortium = ownerConsortium;\r\n        _targetConsortium = targetConsortium;\r\n        _invoicePolarity = invoicePolarity;\r\n        _paymentPolarity = paymentPolarity;\r\n        _paymentTerms = paymentTerms;\r\n        _unitOfCharge = unitOfCharge;\r\n    }\r\n\r\n    function GetParams() public view returns (InvoiceStatus _status, uint _dueOn, uint _invoicedOn,\r\n            uint _invoiceValue, uint _taxValue, uint _paidValue, uint _paidTaxValue) {\r\n        require (state != InvoiceState.Instantiated, \"Not set!\");\r\n        _status = status;\r\n        _dueOn = dueOn;\r\n        _invoicedOn = invoicedOn;\r\n        _invoiceValue = invoiceValue;\r\n        _taxValue = taxValue;\r\n        _paidValue = paidValue;\r\n        _paidTaxValue = paidTaxValue;\r\n    }\r\n\r\n    function GetTaskCount() public view returns (uint _taskCount) {\r\n        return tasks.length;\r\n    }\r\n\r\n    function GetTask(uint _taskIndex) public view returns\r\n                (address _contract, uint _invoiceQuantity, uint _invoiceValue, uint _taxValue, string memory _taxCode) {\r\n        require (state == InvoiceState.Details && _taskIndex < tasks.length, \"Task cannot be located!\");\r\n        _contract = tasks[_taskIndex].Contract;\r\n        _invoiceQuantity = tasks[_taskIndex].Charge.InvoiceQuantity;\r\n        _invoiceValue = tasks[_taskIndex].Charge.InvoiceValue;\r\n        _taxValue = tasks[_taskIndex].Charge.TaxValue;\r\n        _taxCode = tasks[_taskIndex].Charge.TaxCode;\r\n    }\r\n\r\n    function GetItemCount() public view returns (uint _itemCount) {\r\n        return items.length;\r\n    }\r\n\r\n    function GetItem(uint _itemIndex) public view returns\r\n        (string memory _chargeCode, string memory _chargeDescription,\r\n            uint _invoiceQuantity, uint _invoiceValue, uint _taxValue, string memory _taxCode) {\r\n        _chargeCode = items[_itemIndex].ChargeCode;\r\n        _chargeDescription = items[_itemIndex].ChargeDescription;\r\n        _invoiceQuantity = items[_itemIndex].Charge.InvoiceQuantity;\r\n        _invoiceValue = items[_itemIndex].Charge.InvoiceValue;\r\n        _taxValue = items[_itemIndex].Charge.TaxValue;\r\n        _taxCode = items[_itemIndex].Charge.TaxCode;\r\n    }\r\n\r\n    // ** process **\r\n    function Reschedule(uint _dueOn) public onlyOwner {\r\n        require (state != InvoiceState.Instantiated, \"Not configured!\");\r\n        dueOn = _dueOn;\r\n        emit OnDueChange(_dueOn);\r\n    }\r\n\r\n    function Payment(InvoiceStatus _status, uint _paidValue, uint _paidTaxValue) public onlyOwner {\r\n        require (state != InvoiceState.Instantiated, \"Not configured!\");\r\n        uint totalPaid = paidValue.plus(paidTaxValue).plus(_paidValue).plus(_paidTaxValue);\r\n        require (totalPaid <= (invoiceValue.plus(taxValue)), \"Payment exceeds the total invoice value!\");\r\n        paidValue = paidValue.plus(_paidValue);\r\n        paidTaxValue = paidTaxValue.plus(_paidTaxValue);\r\n        emit OnPayment (_paidValue.plus(_paidTaxValue), invoiceValue.plus(taxValue).minus(totalPaid));\r\n\r\n        if (_status != status)\r\n            StatusChange(_status);\r\n    }\r\n\r\n    function StatusChange(InvoiceStatus _status) public onlyOwner {\r\n        require (state >= InvoiceState.Header, \"Not configured!\");\r\n        status = _status;\r\n        emit OnStatusChange (status);\r\n    }\r\n}",
  "sourcePath": "E:/company/trade control/apps/repos/tc-network/src/tcNetwork/solidity/contracts/Invoice.sol",
  "compiler": {
    "name": "solc",
    "version": "0.5.12+commit.7709ece9.Emscripten.clang"
  },
  "schemaVersion": "3.0.19",
  "updatedAt": "2020-05-02T14:07:18.908Z",
  "networkType": "ethereum",
  "devdoc": {
    "methods": {}
  },
  "userdoc": {
    "methods": {}
  }
}