{
  "contractName": "mortal",
  "abi": [
    {
      "constant": false,
      "inputs": [],
      "name": "destroy",
      "outputs": [],
      "payable": false,
      "stateMutability": "nonpayable",
      "type": "function"
    }
  ],
  "bytecode": "0x6080604052336000806101000a81548173ffffffffffffffffffffffffffffffffffffffff021916908373ffffffffffffffffffffffffffffffffffffffff16021790555061017c806100536000396000f3fe608060405234801561001057600080fd5b506004361061002b5760003560e01c806383197ef014610030575b600080fd5b61003861003a565b005b6000809054906101000a900473ffffffffffffffffffffffffffffffffffffffff1673ffffffffffffffffffffffffffffffffffffffff163373ffffffffffffffffffffffffffffffffffffffff16146100df576040517f08c379a000000000000000000000000000000000000000000000000000000000815260040180806020018281038252602e81526020018061011a602e913960400191505060405180910390fd5b6000809054906101000a900473ffffffffffffffffffffffffffffffffffffffff1673ffffffffffffffffffffffffffffffffffffffff16fffe4f6e6c792074686520636f6e7472616374206f776e65722063616e2063616c6c20746869732066756e6374696f6ea265627a7a72315820c12c91f6a785ac93a2ee2df2040a4188968616b46041b07cb663ffad10052f2964736f6c634300050c0032",
  "source": "pragma solidity >=0.4.21 <=0.5.12;\r\n\r\nimport './owned.sol';\r\n\r\ncontract mortal is owned {\r\n\t// Contract destructor\r\n\tfunction destroy() public onlyOwner {\r\n\t\tselfdestruct(owner);\r\n\t}\r\n}",
  "sourcePath": "E:\\company\\trade control\\apps\\repos\\tc-network\\src\\tcNetwork\\solidity\\contracts\\mortal.sol",
  "compiler": {
    "name": "solc",
    "version": "0.5.12+commit.7709ece9.Emscripten.clang"
  },
  "schemaVersion": "3.0.19",
  "updatedAt": "2020-05-02T14:07:16.626Z",
  "devdoc": {
    "methods": {}
  },
  "userdoc": {
    "methods": {}
  }
}