{
  "contractName": "Org",
  "abi": [
    {
      "anonymous": false,
      "inputs": [
        {
          "indexed": true,
          "internalType": "address",
          "name": "eoa",
          "type": "address"
        },
        {
          "indexed": false,
          "internalType": "string",
          "name": "activityCode",
          "type": "string"
        },
        {
          "indexed": false,
          "internalType": "string",
          "name": "allocationCode",
          "type": "string"
        }
      ],
      "name": "OnActivityMirror",
      "type": "event"
    },
    {
      "anonymous": false,
      "inputs": [
        {
          "indexed": true,
          "internalType": "address",
          "name": "eoa",
          "type": "address"
        },
        {
          "indexed": false,
          "internalType": "bool",
          "name": "isAuthorised",
          "type": "bool"
        }
      ],
      "name": "OnAuthorisation",
      "type": "event"
    },
    {
      "anonymous": false,
      "inputs": [
        {
          "indexed": true,
          "internalType": "address",
          "name": "eoa",
          "type": "address"
        },
        {
          "indexed": false,
          "internalType": "string",
          "name": "cashCode",
          "type": "string"
        },
        {
          "indexed": false,
          "internalType": "string",
          "name": "chargeCode",
          "type": "string"
        }
      ],
      "name": "OnCashCodeMirror",
      "type": "event"
    },
    {
      "anonymous": false,
      "inputs": [
        {
          "indexed": true,
          "internalType": "address",
          "name": "eoa",
          "type": "address"
        },
        {
          "indexed": false,
          "internalType": "string",
          "name": "invoiceNumber",
          "type": "string"
        }
      ],
      "name": "OnInvoiceDeploy",
      "type": "event"
    },
    {
      "anonymous": false,
      "inputs": [
        {
          "indexed": true,
          "internalType": "address",
          "name": "eoa",
          "type": "address"
        },
        {
          "indexed": false,
          "internalType": "address",
          "name": "mirrorContract",
          "type": "address"
        }
      ],
      "name": "OnInvoiceNotify",
      "type": "event"
    },
    {
      "anonymous": false,
      "inputs": [
        {
          "indexed": true,
          "internalType": "address",
          "name": "eoa",
          "type": "address"
        },
        {
          "indexed": false,
          "internalType": "string",
          "name": "taskCode",
          "type": "string"
        }
      ],
      "name": "OnTaskDeploy",
      "type": "event"
    },
    {
      "anonymous": false,
      "inputs": [
        {
          "indexed": true,
          "internalType": "address",
          "name": "eoa",
          "type": "address"
        },
        {
          "indexed": false,
          "internalType": "address",
          "name": "mirrorContract",
          "type": "address"
        }
      ],
      "name": "OnTaskNotify",
      "type": "event"
    },
    {
      "constant": false,
      "inputs": [],
      "name": "destroy",
      "outputs": [],
      "payable": false,
      "stateMutability": "nonpayable",
      "type": "function"
    },
    {
      "constant": true,
      "inputs": [],
      "name": "Owner",
      "outputs": [
        {
          "internalType": "address",
          "name": "eoa",
          "type": "address"
        }
      ],
      "payable": false,
      "stateMutability": "view",
      "type": "function"
    },
    {
      "constant": false,
      "inputs": [
        {
          "internalType": "address",
          "name": "_eoa",
          "type": "address"
        },
        {
          "internalType": "address",
          "name": "_orgContract",
          "type": "address"
        },
        {
          "internalType": "string",
          "name": "_accountCode",
          "type": "string"
        },
        {
          "internalType": "bool",
          "name": "_isAuthorised",
          "type": "bool"
        }
      ],
      "name": "NewMember",
      "outputs": [],
      "payable": false,
      "stateMutability": "nonpayable",
      "type": "function"
    },
    {
      "constant": false,
      "inputs": [
        {
          "internalType": "string",
          "name": "_accountCode",
          "type": "string"
        },
        {
          "internalType": "bool",
          "name": "_isAuthorised",
          "type": "bool"
        }
      ],
      "name": "Authorise",
      "outputs": [],
      "payable": false,
      "stateMutability": "nonpayable",
      "type": "function"
    },
    {
      "constant": true,
      "inputs": [
        {
          "internalType": "address",
          "name": "_eoa",
          "type": "address"
        }
      ],
      "name": "EoaAccountCode",
      "outputs": [
        {
          "internalType": "string",
          "name": "_accountCode",
          "type": "string"
        }
      ],
      "payable": false,
      "stateMutability": "view",
      "type": "function"
    },
    {
      "constant": true,
      "inputs": [],
      "name": "SenderAccountCode",
      "outputs": [
        {
          "internalType": "string",
          "name": "_accountCode",
          "type": "string"
        }
      ],
      "payable": false,
      "stateMutability": "view",
      "type": "function"
    },
    {
      "constant": true,
      "inputs": [
        {
          "internalType": "string",
          "name": "_accountCode",
          "type": "string"
        }
      ],
      "name": "GetConsortium",
      "outputs": [
        {
          "internalType": "address",
          "name": "_consortium",
          "type": "address"
        }
      ],
      "payable": false,
      "stateMutability": "view",
      "type": "function"
    },
    {
      "constant": true,
      "inputs": [
        {
          "internalType": "string",
          "name": "_accountCode",
          "type": "string"
        }
      ],
      "name": "GetEOA",
      "outputs": [
        {
          "internalType": "address",
          "name": "_eoa",
          "type": "address"
        }
      ],
      "payable": false,
      "stateMutability": "view",
      "type": "function"
    },
    {
      "constant": true,
      "inputs": [
        {
          "internalType": "string",
          "name": "_accountCode",
          "type": "string"
        }
      ],
      "name": "IsAuthorisedAccount",
      "outputs": [
        {
          "internalType": "bool",
          "name": "_isAuthorised",
          "type": "bool"
        }
      ],
      "payable": false,
      "stateMutability": "view",
      "type": "function"
    },
    {
      "constant": true,
      "inputs": [],
      "name": "IsAuthorised",
      "outputs": [
        {
          "internalType": "bool",
          "name": "_isAuthorised",
          "type": "bool"
        }
      ],
      "payable": false,
      "stateMutability": "view",
      "type": "function"
    },
    {
      "constant": false,
      "inputs": [
        {
          "internalType": "string",
          "name": "_activityCode",
          "type": "string"
        },
        {
          "internalType": "string",
          "name": "_allocationCode",
          "type": "string"
        }
      ],
      "name": "ActivityMirror",
      "outputs": [],
      "payable": false,
      "stateMutability": "nonpayable",
      "type": "function"
    },
    {
      "constant": true,
      "inputs": [
        {
          "internalType": "address",
          "name": "_eoa",
          "type": "address"
        },
        {
          "internalType": "string",
          "name": "_activityCode",
          "type": "string"
        }
      ],
      "name": "AllocationCode",
      "outputs": [
        {
          "internalType": "string",
          "name": "_allocationCode",
          "type": "string"
        }
      ],
      "payable": false,
      "stateMutability": "view",
      "type": "function"
    },
    {
      "constant": false,
      "inputs": [
        {
          "internalType": "string",
          "name": "_cashCode",
          "type": "string"
        },
        {
          "internalType": "string",
          "name": "_chargeCode",
          "type": "string"
        }
      ],
      "name": "CashCodeMirror",
      "outputs": [],
      "payable": false,
      "stateMutability": "nonpayable",
      "type": "function"
    },
    {
      "constant": true,
      "inputs": [
        {
          "internalType": "address",
          "name": "_eoa",
          "type": "address"
        },
        {
          "internalType": "string",
          "name": "_cashCode",
          "type": "string"
        }
      ],
      "name": "ChargeCode",
      "outputs": [
        {
          "internalType": "string",
          "name": "_chargeCode",
          "type": "string"
        }
      ],
      "payable": false,
      "stateMutability": "view",
      "type": "function"
    },
    {
      "constant": false,
      "inputs": [
        {
          "internalType": "string",
          "name": "_taskCode",
          "type": "string"
        },
        {
          "internalType": "string",
          "name": "_accountCode",
          "type": "string"
        },
        {
          "internalType": "address",
          "name": "_taskContract",
          "type": "address"
        }
      ],
      "name": "TaskNew",
      "outputs": [],
      "payable": false,
      "stateMutability": "nonpayable",
      "type": "function"
    },
    {
      "constant": false,
      "inputs": [
        {
          "internalType": "address",
          "name": "_mirrorContract",
          "type": "address"
        }
      ],
      "name": "TaskNotification",
      "outputs": [],
      "payable": false,
      "stateMutability": "nonpayable",
      "type": "function"
    },
    {
      "constant": true,
      "inputs": [
        {
          "internalType": "string",
          "name": "_taskCode",
          "type": "string"
        }
      ],
      "name": "TaskContract",
      "outputs": [
        {
          "internalType": "address",
          "name": "ownerContract",
          "type": "address"
        }
      ],
      "payable": false,
      "stateMutability": "view",
      "type": "function"
    },
    {
      "constant": false,
      "inputs": [
        {
          "internalType": "string",
          "name": "_accountCode",
          "type": "string"
        },
        {
          "internalType": "string",
          "name": "_invoiceNumber",
          "type": "string"
        },
        {
          "internalType": "address",
          "name": "_invoiceContract",
          "type": "address"
        }
      ],
      "name": "InvoiceNew",
      "outputs": [],
      "payable": false,
      "stateMutability": "nonpayable",
      "type": "function"
    },
    {
      "constant": false,
      "inputs": [
        {
          "internalType": "address",
          "name": "_mirrorContract",
          "type": "address"
        }
      ],
      "name": "InvoiceNotification",
      "outputs": [],
      "payable": false,
      "stateMutability": "nonpayable",
      "type": "function"
    },
    {
      "constant": false,
      "inputs": [
        {
          "internalType": "string",
          "name": "_invoiceNumber",
          "type": "string"
        },
        {
          "internalType": "address",
          "name": "_mirrorContract",
          "type": "address"
        }
      ],
      "name": "InvoiceMirror",
      "outputs": [],
      "payable": false,
      "stateMutability": "nonpayable",
      "type": "function"
    },
    {
      "constant": true,
      "inputs": [
        {
          "internalType": "string",
          "name": "_accountCode",
          "type": "string"
        },
        {
          "internalType": "string",
          "name": "_invoiceNumber",
          "type": "string"
        }
      ],
      "name": "InvoiceIsMirrored",
      "outputs": [
        {
          "internalType": "bool",
          "name": "isMirrored",
          "type": "bool"
        }
      ],
      "payable": false,
      "stateMutability": "view",
      "type": "function"
    },
    {
      "constant": true,
      "inputs": [
        {
          "internalType": "string",
          "name": "_accountCode",
          "type": "string"
        },
        {
          "internalType": "string",
          "name": "_invoiceNumber",
          "type": "string"
        }
      ],
      "name": "InvoiceOwnerContract",
      "outputs": [
        {
          "internalType": "address",
          "name": "ownerContract",
          "type": "address"
        }
      ],
      "payable": false,
      "stateMutability": "view",
      "type": "function"
    },
    {
      "constant": true,
      "inputs": [
        {
          "internalType": "string",
          "name": "_accountCode",
          "type": "string"
        },
        {
          "internalType": "string",
          "name": "_invoiceNumber",
          "type": "string"
        }
      ],
      "name": "InvoiceMirrorContract",
      "outputs": [
        {
          "internalType": "address",
          "name": "ownerContract",
          "type": "address"
        }
      ],
      "payable": false,
      "stateMutability": "view",
      "type": "function"
    }
  ],
  "bytecode": "0x6080604052336000806101000a81548173ffffffffffffffffffffffffffffffffffffffff021916908373ffffffffffffffffffffffffffffffffffffffff160217905550613baf806100536000396000f3fe608060405234801561001057600080fd5b506004361061014d5760003560e01c80638c857e85116100c3578063c75eb7511161007c578063c75eb7511461117e578063d7ee195d146112d2578063d9d455d214611444578063dd3cdbdd14611501578063f43ac77014611545578063f4c8e15a146116995761014d565b80638c857e8514610b8f578063961f085214610c965780639cf5ba3e14610d91578063a09a54e614610f03578063a38dc9cf1461106d578063b4a99a4e146111345761014d565b806369827cab1161011557806369827cab146105615780636cd10b99146106f35780636f41f476146107c657806382f01de41461091857806383197ef014610aaa5780638bd4f98414610ab45761014d565b806302cc80f91461015257806316dc001d14610196578063283f547e146102e857806335f71770146103e35780635b3130d2146104de575b600080fd5b6101946004803603602081101561016857600080fd5b81019080803573ffffffffffffffffffffffffffffffffffffffff1690602001909291905050506116bb565b005b6102e6600480360360408110156101ac57600080fd5b81019080803590602001906401000000008111156101c957600080fd5b8201836020820111156101db57600080fd5b803590602001918460018302840111640100000000831117156101fd57600080fd5b91908080601f016020809104026020016040519081016040528093929190818152602001838380828437600081840152601f19601f8201169050808301925050505050505091929192908035906020019064010000000081111561026057600080fd5b82018360208201111561027257600080fd5b8035906020019184600183028401116401000000008311171561029457600080fd5b91908080601f016020809104026020016040519081016040528093929190818152602001838380828437600081840152601f19601f8201169050808301925050505050505091929192905050506117be565b005b6103a1600480360360208110156102fe57600080fd5b810190808035906020019064010000000081111561031b57600080fd5b82018360208201111561032d57600080fd5b8035906020019184600183028401116401000000008311171561034f57600080fd5b91908080601f016020809104026020016040519081016040528093929190818152602001838380828437600081840152601f19601f820116905080830192505050505050509192919290505050611980565b604051808273ffffffffffffffffffffffffffffffffffffffff1673ffffffffffffffffffffffffffffffffffffffff16815260200191505060405180910390f35b61049c600480360360208110156103f957600080fd5b810190808035906020019064010000000081111561041657600080fd5b82018360208201111561042857600080fd5b8035906020019184600183028401116401000000008311171561044a57600080fd5b91908080601f016020809104026020016040519081016040528093929190818152602001838380828437600081840152601f19601f82011690508083019250505050505050919291929050505061199d565b604051808273ffffffffffffffffffffffffffffffffffffffff1673ffffffffffffffffffffffffffffffffffffffff16815260200191505060405180910390f35b6104e66119ba565b6040518080602001828103825283818151815260200191508051906020019080838360005b8381101561052657808201518184015260208101905061050b565b50505050905090810190601f1680156105535780820380516001836020036101000a031916815260200191505b509250505060405180910390f35b6106b16004803603604081101561057757600080fd5b810190808035906020019064010000000081111561059457600080fd5b8201836020820111156105a657600080fd5b803590602001918460018302840111640100000000831117156105c857600080fd5b91908080601f016020809104026020016040519081016040528093929190818152602001838380828437600081840152601f19601f8201169050808301925050505050505091929192908035906020019064010000000081111561062b57600080fd5b82018360208201111561063d57600080fd5b8035906020019184600183028401116401000000008311171561065f57600080fd5b91908080601f016020809104026020016040519081016040528093929190818152602001838380828437600081840152601f19601f8201169050808301925050505050505091929192905050506119ca565b604051808273ffffffffffffffffffffffffffffffffffffffff1673ffffffffffffffffffffffffffffffffffffffff16815260200191505060405180910390f35b6107ac6004803603602081101561070957600080fd5b810190808035906020019064010000000081111561072657600080fd5b82018360208201111561073857600080fd5b8035906020019184600183028401116401000000008311171561075a57600080fd5b91908080601f016020809104026020016040519081016040528093929190818152602001838380828437600081840152601f19601f8201169050808301925050505050505091929192905050506119ea565b604051808215151515815260200191505060405180910390f35b610916600480360360408110156107dc57600080fd5b81019080803590602001906401000000008111156107f957600080fd5b82018360208201111561080b57600080fd5b8035906020019184600183028401116401000000008311171561082d57600080fd5b91908080601f016020809104026020016040519081016040528093929190818152602001838380828437600081840152601f19601f8201169050808301925050505050505091929192908035906020019064010000000081111561089057600080fd5b8201836020820111156108a257600080fd5b803590602001918460018302840111640100000000831117156108c457600080fd5b91908080601f016020809104026020016040519081016040528093929190818152602001838380828437600081840152601f19601f820116905080830192505050505050509192919290505050611a07565b005b610a686004803603604081101561092e57600080fd5b810190808035906020019064010000000081111561094b57600080fd5b82018360208201111561095d57600080fd5b8035906020019184600183028401116401000000008311171561097f57600080fd5b91908080601f016020809104026020016040519081016040528093929190818152602001838380828437600081840152601f19601f820116905080830192505050505050509192919290803590602001906401000000008111156109e257600080fd5b8201836020820111156109f457600080fd5b80359060200191846001830284011164010000000083111715610a1657600080fd5b91908080601f016020809104026020016040519081016040528093929190818152602001838380828437600081840152601f19601f820116905080830192505050505050509192919290505050611bc9565b604051808273ffffffffffffffffffffffffffffffffffffffff1673ffffffffffffffffffffffffffffffffffffffff16815260200191505060405180910390f35b610ab2611be9565b005b610b8d60048036036040811015610aca57600080fd5b8101908080359060200190640100000000811115610ae757600080fd5b820183602082011115610af957600080fd5b80359060200191846001830284011164010000000083111715610b1b57600080fd5b91908080601f016020809104026020016040519081016040528093929190818152602001838380828437600081840152601f19601f820116905080830192505050505050509192919290803573ffffffffffffffffffffffffffffffffffffffff169060200190929190505050611cc8565b005b610c9460048036036080811015610ba557600080fd5b81019080803573ffffffffffffffffffffffffffffffffffffffff169060200190929190803573ffffffffffffffffffffffffffffffffffffffff16906020019092919080359060200190640100000000811115610c0257600080fd5b820183602082011115610c1457600080fd5b80359060200191846001830284011164010000000083111715610c3657600080fd5b91908080601f016020809104026020016040519081016040528093929190818152602001838380828437600081840152601f19601f820116905080830192505050505050509192919290803515159060200190929190505050611ce2565b005b610d4f60048036036020811015610cac57600080fd5b8101908080359060200190640100000000811115610cc957600080fd5b820183602082011115610cdb57600080fd5b80359060200191846001830284011164010000000083111715610cfd57600080fd5b91908080601f016020809104026020016040519081016040528093929190818152602001838380828437600081840152601f19601f820116905080830192505050505050509192919290505050611df9565b604051808273ffffffffffffffffffffffffffffffffffffffff1673ffffffffffffffffffffffffffffffffffffffff16815260200191505060405180910390f35b610f0160048036036060811015610da757600080fd5b8101908080359060200190640100000000811115610dc457600080fd5b820183602082011115610dd657600080fd5b80359060200191846001830284011164010000000083111715610df857600080fd5b91908080601f016020809104026020016040519081016040528093929190818152602001838380828437600081840152601f19601f82011690508083019250505050505050919291929080359060200190640100000000811115610e5b57600080fd5b820183602082011115610e6d57600080fd5b80359060200191846001830284011164010000000083111715610e8f57600080fd5b91908080601f016020809104026020016040519081016040528093929190818152602001838380828437600081840152601f19601f820116905080830192505050505050509192919290803573ffffffffffffffffffffffffffffffffffffffff169060200190929190505050611e16565b005b61105360048036036040811015610f1957600080fd5b8101908080359060200190640100000000811115610f3657600080fd5b820183602082011115610f4857600080fd5b80359060200191846001830284011164010000000083111715610f6a57600080fd5b91908080601f016020809104026020016040519081016040528093929190818152602001838380828437600081840152601f19601f82011690508083019250505050505050919291929080359060200190640100000000811115610fcd57600080fd5b820183602082011115610fdf57600080fd5b8035906020019184600183028401116401000000008311171561100157600080fd5b91908080601f016020809104026020016040519081016040528093929190818152602001838380828437600081840152601f19601f820116905080830192505050505050509192919290505050611f9c565b604051808215151515815260200191505060405180910390f35b6111326004803603604081101561108357600080fd5b81019080803590602001906401000000008111156110a057600080fd5b8201836020820111156110b257600080fd5b803590602001918460018302840111640100000000831117156110d457600080fd5b91908080601f016020809104026020016040519081016040528093929190818152602001838380828437600081840152601f19601f820116905080830192505050505050509192919290803515159060200190929190505050611fbc565b005b61113c6120e0565b604051808273ffffffffffffffffffffffffffffffffffffffff1673ffffffffffffffffffffffffffffffffffffffff16815260200191505060405180910390f35b6112576004803603604081101561119457600080fd5b81019080803573ffffffffffffffffffffffffffffffffffffffff169060200190929190803590602001906401000000008111156111d157600080fd5b8201836020820111156111e357600080fd5b8035906020019184600183028401116401000000008311171561120557600080fd5b91908080601f016020809104026020016040519081016040528093929190818152602001838380828437600081840152601f19601f820116905080830192505050505050509192919290505050612109565b6040518080602001828103825283818151815260200191508051906020019080838360005b8381101561129757808201518184015260208101905061127c565b50505050905090810190601f1680156112c45780820380516001836020036101000a031916815260200191505b509250505060405180910390f35b611442600480360360608110156112e857600080fd5b810190808035906020019064010000000081111561130557600080fd5b82018360208201111561131757600080fd5b8035906020019184600183028401116401000000008311171561133957600080fd5b91908080601f016020809104026020016040519081016040528093929190818152602001838380828437600081840152601f19601f8201169050808301925050505050505091929192908035906020019064010000000081111561139c57600080fd5b8201836020820111156113ae57600080fd5b803590602001918460018302840111640100000000831117156113d057600080fd5b91908080601f016020809104026020016040519081016040528093929190818152602001838380828437600081840152601f19601f820116905080830192505050505050509192919290803573ffffffffffffffffffffffffffffffffffffffff169060200190929190505050612206565b005b6114866004803603602081101561145a57600080fd5b81019080803573ffffffffffffffffffffffffffffffffffffffff16906020019092919050505061238e565b6040518080602001828103825283818151815260200191508051906020019080838360005b838110156114c65780820151818401526020810190506114ab565b50505050905090810190601f1680156114f35780820380516001836020036101000a031916815260200191505b509250505060405180910390f35b6115436004803603602081101561151757600080fd5b81019080803573ffffffffffffffffffffffffffffffffffffffff1690602001909291905050506123c5565b005b61161e6004803603604081101561155b57600080fd5b81019080803573ffffffffffffffffffffffffffffffffffffffff1690602001909291908035906020019064010000000081111561159857600080fd5b8201836020820111156115aa57600080fd5b803590602001918460018302840111640100000000831117156115cc57600080fd5b91908080601f016020809104026020016040519081016040528093929190818152602001838380828437600081840152601f19601f8201169050808301925050505050505091929192905050506124c8565b6040518080602001828103825283818151815260200191508051906020019080838360005b8381101561165e578082015181840152602081019050611643565b50505050905090810190601f16801561168b5780820380516001836020036101000a031916815260200191505b509250505060405180910390f35b6116a16125c5565b604051808215151515815260200191505060405180910390f35b6116cf3360016125e090919063ffffffff16565b611741576040517f08c379a00000000000000000000000000000000000000000000000000000000081526004018080602001828103825260158152602001807f556e2d617574686f7269736564206163636f756e74000000000000000000000081525060200191505060405180910390fd5b3373ffffffffffffffffffffffffffffffffffffffff167fed61c9aa85e9678089d9d1c8a8447d9b6413647230ca4ef4ded9416ffab62edc82604051808273ffffffffffffffffffffffffffffffffffffffff1673ffffffffffffffffffffffffffffffffffffffff16815260200191505060405180910390a250565b6117d23360016125e090919063ffffffff16565b611844576040517f08c379a00000000000000000000000000000000000000000000000000000000081526004018080602001828103825260158152602001807f556e2d617574686f7269736564206163636f756e74000000000000000000000081525060200191505060405180910390fd5b61185c33838360016126b1909392919063ffffffff16565b3373ffffffffffffffffffffffffffffffffffffffff167f57b836403da5a8536891ed9b1bb040350b30d7982f1ed23f26d90aedafc935568383604051808060200180602001838103835285818151815260200191508051906020019080838360005b838110156118da5780820151818401526020810190506118bf565b50505050905090810190601f1680156119075780820380516001836020036101000a031916815260200191505b50838103825284818151815260200191508051906020019080838360005b83811015611940578082015181840152602081019050611925565b50505050905090810190601f16801561196d5780820380516001836020036101000a031916815260200191505b5094505050505060405180910390a25050565b600061199682600161277490919063ffffffff16565b9050919050565b60006119b382600161280a90919063ffffffff16565b9050919050565b60606119c53361238e565b905090565b60006119e2838360016128a39092919063ffffffff16565b905092915050565b6000611a008260016129a490919063ffffffff16565b9050919050565b611a1b3360016125e090919063ffffffff16565b611a8d576040517f08c379a00000000000000000000000000000000000000000000000000000000081526004018080602001828103825260158152602001807f556e2d617574686f7269736564206163636f756e74000000000000000000000081525060200191505060405180910390fd5b611aa53383836001612a2a909392919063ffffffff16565b3373ffffffffffffffffffffffffffffffffffffffff167f2f896c68275a829ce721310e4aa8667f197fcf31cc438081843b6fb5baef061a8383604051808060200180602001838103835285818151815260200191508051906020019080838360005b83811015611b23578082015181840152602081019050611b08565b50505050905090810190601f168015611b505780820380516001836020036101000a031916815260200191505b50838103825284818151815260200191508051906020019080838360005b83811015611b89578082015181840152602081019050611b6e565b50505050905090810190601f168015611bb65780820380516001836020036101000a031916815260200191505b5094505050505060405180910390a25050565b6000611be183836001612aed9092919063ffffffff16565b905092915050565b6000809054906101000a900473ffffffffffffffffffffffffffffffffffffffff1673ffffffffffffffffffffffffffffffffffffffff163373ffffffffffffffffffffffffffffffffffffffff1614611c8e576040517f08c379a000000000000000000000000000000000000000000000000000000000815260040180806020018281038252602e815260200180613b4d602e913960400191505060405180910390fd5b6000809054906101000a900473ffffffffffffffffffffffffffffffffffffffff1673ffffffffffffffffffffffffffffffffffffffff16ff5b611cde82826001612bee9092919063ffffffff16565b5050565b6000809054906101000a900473ffffffffffffffffffffffffffffffffffffffff1673ffffffffffffffffffffffffffffffffffffffff163373ffffffffffffffffffffffffffffffffffffffff1614611d87576040517f08c379a000000000000000000000000000000000000000000000000000000000815260040180806020018281038252602e815260200180613b4d602e913960400191505060405180910390fd5b611da184848484600161316690949392919063ffffffff16565b8373ffffffffffffffffffffffffffffffffffffffff167f797277c7b57addec8a78fd40d3da0c2adc1c80f538b3f620879711201fba374182604051808215151515815260200191505060405180910390a250505050565b6000611e0f82600161337c90919063ffffffff16565b9050919050565b6000809054906101000a900473ffffffffffffffffffffffffffffffffffffffff1673ffffffffffffffffffffffffffffffffffffffff163373ffffffffffffffffffffffffffffffffffffffff1614611ebb576040517f08c379a000000000000000000000000000000000000000000000000000000000815260040180806020018281038252602e815260200180613b4d602e913960400191505060405180910390fd5b611ed1838260016134799092919063ffffffff16565b611ee582600161280a90919063ffffffff16565b73ffffffffffffffffffffffffffffffffffffffff167fcd7ea7293561ddd8a647d5640eb7a1fc9c4987fd0cec4243b771e5d369905a17846040518080602001828103825283818151815260200191508051906020019080838360005b83811015611f5d578082015181840152602081019050611f42565b50505050905090810190601f168015611f8a5780820380516001836020036101000a031916815260200191505b509250505060405180910390a2505050565b6000611fb4838360016135289092919063ffffffff16565b905092915050565b6000809054906101000a900473ffffffffffffffffffffffffffffffffffffffff1673ffffffffffffffffffffffffffffffffffffffff163373ffffffffffffffffffffffffffffffffffffffff1614612061576040517f08c379a000000000000000000000000000000000000000000000000000000000815260040180806020018281038252602e815260200180613b4d602e913960400191505060405180910390fd5b612077828260016136169092919063ffffffff16565b61208b82600161280a90919063ffffffff16565b73ffffffffffffffffffffffffffffffffffffffff167f797277c7b57addec8a78fd40d3da0c2adc1c80f538b3f620879711201fba374182604051808215151515815260200191505060405180910390a25050565b60008060009054906101000a900473ffffffffffffffffffffffffffffffffffffffff16905090565b606061211f3360016125e090919063ffffffff16565b8061217657506000809054906101000a900473ffffffffffffffffffffffffffffffffffffffff1673ffffffffffffffffffffffffffffffffffffffff163373ffffffffffffffffffffffffffffffffffffffff16145b6121e8576040517f08c379a00000000000000000000000000000000000000000000000000000000081526004018080602001828103825260158152602001807f556e2d617574686f7269736564206163636f756e74000000000000000000000081525060200191505060405180910390fd5b6121fe838360016136a19092919063ffffffff16565b905092915050565b6000809054906101000a900473ffffffffffffffffffffffffffffffffffffffff1673ffffffffffffffffffffffffffffffffffffffff163373ffffffffffffffffffffffffffffffffffffffff16146122ab576040517f08c379a000000000000000000000000000000000000000000000000000000000815260040180806020018281038252602e815260200180613b4d602e913960400191505060405180910390fd5b6122c383838360016137ed909392919063ffffffff16565b6122d783600161280a90919063ffffffff16565b73ffffffffffffffffffffffffffffffffffffffff167fa51a1ea86585377093837b82df79e9fdcbb14004ba27356dd39b47ba808dd444836040518080602001828103825283818151815260200191508051906020019080838360005b8381101561234f578082015181840152602081019050612334565b50505050905090810190601f16801561237c5780820380516001836020036101000a031916815260200191505b509250505060405180910390a2505050565b60606123a48260016125e090919063ffffffff16565b156123c0576123bd8260016139c090919063ffffffff16565b90505b919050565b6123d93360016125e090919063ffffffff16565b61244b576040517f08c379a00000000000000000000000000000000000000000000000000000000081526004018080602001828103825260158152602001807f556e2d617574686f7269736564206163636f756e74000000000000000000000081525060200191505060405180910390fd5b3373ffffffffffffffffffffffffffffffffffffffff167f1b89ff22b73254a9e36cbb0e0213d150c66dcababb221d31f33f350ea123f89d82604051808273ffffffffffffffffffffffffffffffffffffffff1673ffffffffffffffffffffffffffffffffffffffff16815260200191505060405180910390a250565b60606124de3360016125e090919063ffffffff16565b8061253557506000809054906101000a900473ffffffffffffffffffffffffffffffffffffffff1673ffffffffffffffffffffffffffffffffffffffff163373ffffffffffffffffffffffffffffffffffffffff16145b6125a7576040517f08c379a00000000000000000000000000000000000000000000000000000000081526004018080602001828103825260158152602001807f556e2d617574686f7269736564206163636f756e74000000000000000000000081525060200191505060405180910390fd5b6125bd838360016136a19092919063ffffffff16565b905092915050565b60006125db3360016125e090919063ffffffff16565b905090565b6000826000018360010160008473ffffffffffffffffffffffffffffffffffffffff1673ffffffffffffffffffffffffffffffffffffffff16815260200190815260200160002060010160405180828054600181600116156101000203166002900480156126855780601f10612663576101008083540402835291820191612685565b820191906000526020600020905b815481529060010190602001808311612671575b5050915050908152602001604051809103902060000160149054906101000a900460ff16905092915050565b808460020160008573ffffffffffffffffffffffffffffffffffffffff1673ffffffffffffffffffffffffffffffffffffffff168152602001908152602001600020836040518082805190602001908083835b602083106127275780518252602082019150602081019050602083039250612704565b6001836020036101000a0380198251168184511680821785525050505050509050019150509081526020016040518091039020908051906020019061276d929190613aa7565b5050505050565b600082600401826040518082805190602001908083835b602083106127ae578051825260208201915060208101905060208303925061278b565b6001836020036101000a038019825116818451168082178552505050505050905001915050908152602001604051809103902060009054906101000a900473ffffffffffffffffffffffffffffffffffffffff16905092915050565b600082600001826040518082805190602001908083835b602083106128445780518252602082019150602081019050602083039250612821565b6001836020036101000a038019825116818451168082178552505050505050905001915050908152602001604051809103902060000160009054906101000a900473ffffffffffffffffffffffffffffffffffffffff16905092915050565b600083600501836040518082805190602001908083835b602083106128dd57805182526020820191506020810190506020830392506128ba565b6001836020036101000a0380198251168184511680821785525050505050509050019150509081526020016040518091039020826040518082805190602001908083835b602083106129445780518252602082019150602081019050602083039250612921565b6001836020036101000a038019825116818451168082178552505050505050905001915050908152602001604051809103902060000160009054906101000a900473ffffffffffffffffffffffffffffffffffffffff1690509392505050565b600082600001826040518082805190602001908083835b602083106129de57805182526020820191506020810190506020830392506129bb565b6001836020036101000a038019825116818451168082178552505050505050905001915050908152602001604051809103902060000160149054906101000a900460ff16905092915050565b808460020160008573ffffffffffffffffffffffffffffffffffffffff1673ffffffffffffffffffffffffffffffffffffffff168152602001908152602001600020836040518082805190602001908083835b60208310612aa05780518252602082019150602081019050602083039250612a7d565b6001836020036101000a03801982511681845116808217855250505050505090500191505090815260200160405180910390209080519060200190612ae6929190613aa7565b5050505050565b600083600501836040518082805190602001908083835b60208310612b275780518252602082019150602081019050602083039250612b04565b6001836020036101000a0380198251168184511680821785525050505050509050019150509081526020016040518091039020826040518082805190602001908083835b60208310612b8e5780518252602082019150602081019050602083039250612b6b565b6001836020036101000a038019825116818451168082178552505050505050905001915050908152602001604051809103902060010160009054906101000a900473ffffffffffffffffffffffffffffffffffffffff1690509392505050565b826000018360010160003373ffffffffffffffffffffffffffffffffffffffff1673ffffffffffffffffffffffffffffffffffffffff1681526020019081526020016000206001016040518082805460018160011615610100020316600290048015612c915780601f10612c6f576101008083540402835291820191612c91565b820191906000526020600020905b815481529060010190602001808311612c7d575b5050915050908152602001604051809103902060000160149054906101000a900460ff16612d27576040517f08c379a00000000000000000000000000000000000000000000000000000000081526004018080602001828103825260158152602001807f556e2d617574686f7269736564206163636f756e74000000000000000000000081525060200191505060405180910390fd5b60608360010160003373ffffffffffffffffffffffffffffffffffffffff1673ffffffffffffffffffffffffffffffffffffffff1681526020019081526020016000206001018054600181600116156101000203166002900480601f016020809104026020016040519081016040528092919081815260200182805460018160011615610100020316600290048015612e015780601f10612dd657610100808354040283529160200191612e01565b820191906000526020600020905b815481529060010190602001808311612de457829003601f168201915b5050505050905083600501816040518082805190602001908083835b60208310612e405780518252602082019150602081019050602083039250612e1d565b6001836020036101000a0380198251168184511680821785525050505050509050019150509081526020016040518091039020836040518082805190602001908083835b60208310612ea75780518252602082019150602081019050602083039250612e84565b6001836020036101000a038019825116818451168082178552505050505050905001915050908152602001604051809103902060010160149054906101000a900460ff1615612f5e576040517f08c379a000000000000000000000000000000000000000000000000000000000815260040180806020018281038252601b8152602001807f496e766f69636520697320616c7265616479206d6972726f726564000000000081525060200191505060405180910390fd5b8184600501826040518082805190602001908083835b60208310612f975780518252602082019150602081019050602083039250612f74565b6001836020036101000a0380198251168184511680821785525050505050509050019150509081526020016040518091039020846040518082805190602001908083835b60208310612ffe5780518252602082019150602081019050602083039250612fdb565b6001836020036101000a038019825116818451168082178552505050505050905001915050908152602001604051809103902060010160006101000a81548173ffffffffffffffffffffffffffffffffffffffff021916908373ffffffffffffffffffffffffffffffffffffffff160217905550600184600501826040518082805190602001908083835b602083106130ac5780518252602082019150602081019050602083039250613089565b6001836020036101000a0380198251168184511680821785525050505050509050019150509081526020016040518091039020846040518082805190602001908083835b6020831061311357805182526020820191506020810190506020830392506130f0565b6001836020036101000a038019825116818451168082178552505050505050905001915050908152602001604051809103902060010160146101000a81548160ff02191690831515021790555050505050565b818560010160008673ffffffffffffffffffffffffffffffffffffffff1673ffffffffffffffffffffffffffffffffffffffff16815260200190815260200160002060010190805190602001906131be929190613aa7565b50828560010160008673ffffffffffffffffffffffffffffffffffffffff1673ffffffffffffffffffffffffffffffffffffffff16815260200190815260200160002060000160006101000a81548173ffffffffffffffffffffffffffffffffffffffff021916908373ffffffffffffffffffffffffffffffffffffffff1602179055508085600001836040518082805190602001908083835b6020831061327b5780518252602082019150602081019050602083039250613258565b6001836020036101000a038019825116818451168082178552505050505050905001915050908152602001604051809103902060000160146101000a81548160ff0219169083151502179055508385600001836040518082805190602001908083835b6020831061330157805182526020820191506020810190506020830392506132de565b6001836020036101000a038019825116818451168082178552505050505050905001915050908152602001604051809103902060000160006101000a81548173ffffffffffffffffffffffffffffffffffffffff021916908373ffffffffffffffffffffffffffffffffffffffff1602179055505050505050565b600082600101600084600001846040518082805190602001908083835b602083106133bc5780518252602082019150602081019050602083039250613399565b6001836020036101000a038019825116818451168082178552505050505050905001915050908152602001604051809103902060000160009054906101000a900473ffffffffffffffffffffffffffffffffffffffff1673ffffffffffffffffffffffffffffffffffffffff1673ffffffffffffffffffffffffffffffffffffffff16815260200190815260200160002060000160009054906101000a900473ffffffffffffffffffffffffffffffffffffffff16905092915050565b8083600401836040518082805190602001908083835b602083106134b2578051825260208201915060208101905060208303925061348f565b6001836020036101000a038019825116818451168082178552505050505050905001915050908152602001604051809103902060006101000a81548173ffffffffffffffffffffffffffffffffffffffff021916908373ffffffffffffffffffffffffffffffffffffffff160217905550505050565b600083600501836040518082805190602001908083835b60208310613562578051825260208201915060208101905060208303925061353f565b6001836020036101000a0380198251168184511680821785525050505050509050019150509081526020016040518091039020826040518082805190602001908083835b602083106135c957805182526020820191506020810190506020830392506135a6565b6001836020036101000a038019825116818451168082178552505050505050905001915050908152602001604051809103902060010160149054906101000a900460ff1690509392505050565b8083600001836040518082805190602001908083835b6020831061364f578051825260208201915060208101905060208303925061362c565b6001836020036101000a038019825116818451168082178552505050505050905001915050908152602001604051809103902060000160146101000a81548160ff021916908315150217905550505050565b60608360020160008473ffffffffffffffffffffffffffffffffffffffff1673ffffffffffffffffffffffffffffffffffffffff168152602001908152602001600020826040518082805190602001908083835b6020831061371857805182526020820191506020810190506020830392506136f5565b6001836020036101000a03801982511681845116808217855250505050505090500191505090815260200160405180910390208054600181600116156101000203166002900480601f0160208091040260200160405190810160405280929190818152602001828054600181600116156101000203166002900480156137df5780601f106137b4576101008083540402835291602001916137df565b820191906000526020600020905b8154815290600101906020018083116137c257829003601f168201915b505050505090509392505050565b60405180606001604052808273ffffffffffffffffffffffffffffffffffffffff1681526020018273ffffffffffffffffffffffffffffffffffffffff1681526020016000151581525084600501846040518082805190602001908083835b6020831061386f578051825260208201915060208101905060208303925061384c565b6001836020036101000a0380198251168184511680821785525050505050509050019150509081526020016040518091039020836040518082805190602001908083835b602083106138d657805182526020820191506020810190506020830392506138b3565b6001836020036101000a038019825116818451168082178552505050505050905001915050908152602001604051809103902060008201518160000160006101000a81548173ffffffffffffffffffffffffffffffffffffffff021916908373ffffffffffffffffffffffffffffffffffffffff16021790555060208201518160010160006101000a81548173ffffffffffffffffffffffffffffffffffffffff021916908373ffffffffffffffffffffffffffffffffffffffff16021790555060408201518160010160146101000a81548160ff02191690831515021790555090505050505050565b60608260010160008373ffffffffffffffffffffffffffffffffffffffff1673ffffffffffffffffffffffffffffffffffffffff1681526020019081526020016000206001018054600181600116156101000203166002900480601f016020809104026020016040519081016040528092919081815260200182805460018160011615610100020316600290048015613a9a5780601f10613a6f57610100808354040283529160200191613a9a565b820191906000526020600020905b815481529060010190602001808311613a7d57829003601f168201915b5050505050905092915050565b828054600181600116156101000203166002900490600052602060002090601f016020900481019282601f10613ae857805160ff1916838001178555613b16565b82800160010185558215613b16579182015b82811115613b15578251825591602001919060010190613afa565b5b509050613b239190613b27565b5090565b613b4991905b80821115613b45576000816000905550600101613b2d565b5090565b9056fe4f6e6c792074686520636f6e7472616374206f776e65722063616e2063616c6c20746869732066756e6374696f6ea265627a7a7231582010242010b161d800848d8e3ac0c82a14c0ae06077a7e2c93ca3b801324e06edc64736f6c634300050c0032",
  "source": "/*\r\nTrade Control Network\r\nOrg contract\r\nAuthor IAM\r\n\r\ngithub.com/tradecontrol/tc-network\r\n\r\nLicence GNU General Public License v3.0\r\nhttps://www.gnu.org/licenses/gpl-3.0.en.html\r\n\r\n*/\r\npragma solidity >=0.4.21 <=0.5.12;\r\n\r\nimport \"./mortal.sol\";\r\nimport \"./OrgLib.sol\";\r\n\r\ncontract Org is mortal\r\n{\r\n    using OrgLib for OrgLib.Orgs;\r\n\r\n    OrgLib.Orgs orgs;\r\n\r\n    event OnAuthorisation (address indexed eoa, bool isAuthorised);\r\n    event OnActivityMirror (address indexed eoa, string activityCode, string allocationCode);\r\n    event OnCashCodeMirror (address indexed eoa, string cashCode, string chargeCode);\r\n    event OnTaskDeploy (address indexed eoa, string taskCode);\r\n    event OnInvoiceDeploy (address indexed eoa, string invoiceNumber);\r\n    event OnTaskNotify (address indexed eoa, address mirrorContract);\r\n    event OnInvoiceNotify (address indexed eoa, address mirrorContract);\r\n\r\n    function Owner() public view returns (address eoa) { return owner; }\r\n\r\n    // ** Accounts **\r\n    function NewMember(address _eoa, address _orgContract, string memory _accountCode, bool _isAuthorised) public onlyOwner {\r\n        orgs.NewMember(_eoa, _orgContract, _accountCode, _isAuthorised);\r\n        emit OnAuthorisation(_eoa, _isAuthorised);\r\n    }\r\n\r\n    function Authorise(string memory _accountCode, bool _isAuthorised) public onlyOwner {\r\n        orgs.Authorise(_accountCode, _isAuthorised);\r\n        emit OnAuthorisation(orgs.GetEOA(_accountCode), _isAuthorised);\r\n    }\r\n\r\n    function EoaAccountCode(address _eoa) public view returns (string memory _accountCode) {\r\n        if (orgs.IsAuthorised(_eoa))\r\n            _accountCode = orgs.GetAccountCode(_eoa);\r\n    }\r\n\r\n    function SenderAccountCode() public view returns (string memory _accountCode) {\r\n        return EoaAccountCode(msg.sender);\r\n    }\r\n\r\n    function GetConsortium(string memory _accountCode) public view returns (address _consortium) {\r\n        return orgs.GetConsortium(_accountCode);\r\n    }\r\n\r\n    function GetEOA (string memory _accountCode) public view returns (address _eoa) {\r\n        return orgs.GetEOA(_accountCode);\r\n    }\r\n\r\n    function IsAuthorisedAccount(string memory _accountCode) public view returns (bool _isAuthorised) {\r\n        return orgs.IsAuthorised(_accountCode);\r\n    }\r\n\r\n    function IsAuthorised() public view returns (bool _isAuthorised) {\r\n        return orgs.IsAuthorised(msg.sender);\r\n    }\r\n\r\n    // ** Activities **\r\n    function ActivityMirror(string memory _activityCode, string memory _allocationCode) public  {\r\n        require (orgs.IsAuthorised(msg.sender), \"Un-authorised account\");\r\n        orgs.ActivityMirror(msg.sender, _activityCode, _allocationCode);\r\n        emit OnActivityMirror(msg.sender, _activityCode, _allocationCode);\r\n    }\r\n\r\n    function AllocationCode(address _eoa, string memory _activityCode) public view returns (string memory _allocationCode) {\r\n        require (orgs.IsAuthorised(msg.sender) || msg.sender == owner, \"Un-authorised account\");\r\n        _allocationCode = orgs.AllocationCode(_eoa, _activityCode);\r\n    }\r\n\r\n    // ** Cash Codes **\r\n    function CashCodeMirror(string memory _cashCode, string memory _chargeCode) public  {\r\n        require (orgs.IsAuthorised(msg.sender), \"Un-authorised account\");\r\n        orgs.CashCodeMirror(msg.sender, _cashCode, _chargeCode);\r\n        emit OnCashCodeMirror(msg.sender, _cashCode, _chargeCode);\r\n    }\r\n\r\n    function ChargeCode(address _eoa, string memory _cashCode) public view returns (string memory _chargeCode) {\r\n        require (orgs.IsAuthorised(msg.sender) || msg.sender == owner, \"Un-authorised account\");\r\n        _chargeCode = orgs.AllocationCode(_eoa, _cashCode);\r\n    }\r\n\r\n    // ** Tasks **\r\n    function TaskNew (string memory _taskCode, string memory _accountCode, address _taskContract) public onlyOwner {\r\n        orgs.TaskNew(_taskCode, _taskContract);\r\n        emit OnTaskDeploy(orgs.GetEOA(_accountCode), _taskCode);\r\n    }\r\n\r\n    function TaskNotification(address _mirrorContract) public {\r\n        require (orgs.IsAuthorised(msg.sender), \"Un-authorised account\");\r\n        emit OnTaskNotify(msg.sender, _mirrorContract);\r\n    }\r\n\r\n    function TaskContract(string memory _taskCode) public view returns (address ownerContract) {\r\n        return orgs.TaskContract(_taskCode);\r\n    }\r\n\r\n    // ** Invoices **\r\n    function InvoiceNew (string memory _accountCode, string memory _invoiceNumber, address _invoiceContract) public onlyOwner {\r\n        orgs.InvoiceNew(_accountCode, _invoiceNumber, _invoiceContract);\r\n        emit OnInvoiceDeploy(orgs.GetEOA(_accountCode), _invoiceNumber);\r\n    }\r\n\r\n    function InvoiceNotification(address _mirrorContract) public {\r\n        require (orgs.IsAuthorised(msg.sender), \"Un-authorised account\");\r\n        emit OnInvoiceNotify(msg.sender, _mirrorContract);\r\n    }\r\n\r\n    function InvoiceMirror(string memory _invoiceNumber, address _mirrorContract) public {\r\n        orgs.InvoiceMirror(_invoiceNumber, _mirrorContract);\r\n    }\r\n\r\n    function InvoiceIsMirrored(string memory _accountCode,  string memory _invoiceNumber)\r\n                                public view returns (bool isMirrored) {\r\n        return orgs.InvoiceIsMirrored(_accountCode, _invoiceNumber);\r\n    }\r\n\r\n    function InvoiceOwnerContract(string memory _accountCode,  string memory _invoiceNumber)\r\n                                public view returns (address ownerContract) {\r\n        return orgs.InvoiceOwnerContract(_accountCode, _invoiceNumber);\r\n    }\r\n\r\n    function InvoiceMirrorContract(string memory _accountCode,  string memory _invoiceNumber)\r\n                                public view returns (address ownerContract) {\r\n        return orgs.InvoiceMirrorContract(_accountCode, _invoiceNumber);\r\n    }\r\n}",
  "sourcePath": "E:/company/trade control/apps/repos/tc-network/src/tcNetwork/solidity/contracts/Org.sol",
  "compiler": {
    "name": "solc",
    "version": "0.5.12+commit.7709ece9.Emscripten.clang"
  },
  "schemaVersion": "3.0.19",
  "updatedAt": "2020-05-02T14:05:01.217Z",
  "networkType": "ethereum",
  "devdoc": {
    "methods": {}
  },
  "userdoc": {
    "methods": {}
  }
}