{
  "contractName": "Task",
  "abi": [
    {
      "inputs": [],
      "payable": false,
      "stateMutability": "nonpayable",
      "type": "constructor"
    },
    {
      "anonymous": false,
      "inputs": [
        {
          "indexed": false,
          "internalType": "string",
          "name": "taskCode",
          "type": "string"
        },
        {
          "indexed": false,
          "internalType": "uint256",
          "name": "quantity",
          "type": "uint256"
        },
        {
          "indexed": false,
          "internalType": "uint256",
          "name": "actionedOn",
          "type": "uint256"
        }
      ],
      "name": "OnDelivery",
      "type": "event"
    },
    {
      "anonymous": false,
      "inputs": [
        {
          "indexed": false,
          "internalType": "string",
          "name": "taskCode",
          "type": "string"
        }
      ],
      "name": "OnPriceChange",
      "type": "event"
    },
    {
      "anonymous": false,
      "inputs": [
        {
          "indexed": false,
          "internalType": "string",
          "name": "taskCode",
          "type": "string"
        },
        {
          "indexed": false,
          "internalType": "uint256",
          "name": "quantity",
          "type": "uint256"
        },
        {
          "indexed": false,
          "internalType": "uint256",
          "name": "actionOn",
          "type": "uint256"
        }
      ],
      "name": "OnRescheduled",
      "type": "event"
    },
    {
      "anonymous": false,
      "inputs": [
        {
          "indexed": false,
          "internalType": "string",
          "name": "taskCode",
          "type": "string"
        },
        {
          "indexed": false,
          "internalType": "enum Task.TaskStatus",
          "name": "status",
          "type": "uint8"
        },
        {
          "indexed": false,
          "internalType": "uint256",
          "name": "actionedOn",
          "type": "uint256"
        }
      ],
      "name": "OnStatusChange",
      "type": "event"
    },
    {
      "constant": false,
      "inputs": [],
      "name": "destroy",
      "outputs": [],
      "payable": false,
      "stateMutability": "nonpayable",
      "type": "function"
    },
    {
      "constant": true,
      "inputs": [],
      "name": "Owner",
      "outputs": [
        {
          "internalType": "address",
          "name": "eoa",
          "type": "address"
        }
      ],
      "payable": false,
      "stateMutability": "view",
      "type": "function"
    },
    {
      "constant": false,
      "inputs": [
        {
          "internalType": "string",
          "name": "_taskCode",
          "type": "string"
        },
        {
          "internalType": "address",
          "name": "_targetConsortium",
          "type": "address"
        },
        {
          "internalType": "enum Task.CashPolarity",
          "name": "_polarity",
          "type": "uint8"
        },
        {
          "internalType": "string",
          "name": "_activityCode",
          "type": "string"
        },
        {
          "internalType": "string",
          "name": "_description",
          "type": "string"
        },
        {
          "internalType": "string",
          "name": "_title",
          "type": "string"
        },
        {
          "internalType": "enum Task.TaskStatus",
          "name": "_status",
          "type": "uint8"
        },
        {
          "internalType": "uint256",
          "name": "_actionOn",
          "type": "uint256"
        },
        {
          "internalType": "uint256",
          "name": "_unitCharge",
          "type": "uint256"
        },
        {
          "internalType": "uint256",
          "name": "_quantity",
          "type": "uint256"
        },
        {
          "internalType": "uint256",
          "name": "_taxRate",
          "type": "uint256"
        },
        {
          "internalType": "string",
          "name": "_unitOfMeasure",
          "type": "string"
        },
        {
          "internalType": "string",
          "name": "_unitOfCharge",
          "type": "string"
        }
      ],
      "name": "Initialise",
      "outputs": [],
      "payable": false,
      "stateMutability": "nonpayable",
      "type": "function"
    },
    {
      "constant": true,
      "inputs": [],
      "name": "IsInitialised",
      "outputs": [
        {
          "internalType": "bool",
          "name": "isInitialised",
          "type": "bool"
        }
      ],
      "payable": false,
      "stateMutability": "view",
      "type": "function"
    },
    {
      "constant": true,
      "inputs": [],
      "name": "GetHeader",
      "outputs": [
        {
          "internalType": "string",
          "name": "_taskCode",
          "type": "string"
        },
        {
          "internalType": "address",
          "name": "_targetConsortium",
          "type": "address"
        },
        {
          "internalType": "enum Task.CashPolarity",
          "name": "_polarity",
          "type": "uint8"
        },
        {
          "internalType": "string",
          "name": "_activityCode",
          "type": "string"
        },
        {
          "internalType": "string",
          "name": "_description",
          "type": "string"
        },
        {
          "internalType": "string",
          "name": "_title",
          "type": "string"
        },
        {
          "internalType": "string",
          "name": "_unitOfMeasure",
          "type": "string"
        },
        {
          "internalType": "string",
          "name": "_unitOfCharge",
          "type": "string"
        }
      ],
      "payable": false,
      "stateMutability": "view",
      "type": "function"
    },
    {
      "constant": true,
      "inputs": [],
      "name": "GetSchedule",
      "outputs": [
        {
          "internalType": "enum Task.TaskStatus",
          "name": "_status",
          "type": "uint8"
        },
        {
          "internalType": "uint256",
          "name": "_actionOn",
          "type": "uint256"
        },
        {
          "internalType": "uint256",
          "name": "_unitCharge",
          "type": "uint256"
        },
        {
          "internalType": "uint256",
          "name": "_quantityOrdered",
          "type": "uint256"
        },
        {
          "internalType": "uint256",
          "name": "_taxRate",
          "type": "uint256"
        },
        {
          "internalType": "uint256",
          "name": "_quantityDelivered",
          "type": "uint256"
        }
      ],
      "payable": false,
      "stateMutability": "view",
      "type": "function"
    },
    {
      "constant": false,
      "inputs": [
        {
          "internalType": "uint256",
          "name": "_unitCharge",
          "type": "uint256"
        },
        {
          "internalType": "uint256",
          "name": "_taxRate",
          "type": "uint256"
        }
      ],
      "name": "PriceChange",
      "outputs": [],
      "payable": false,
      "stateMutability": "nonpayable",
      "type": "function"
    },
    {
      "constant": false,
      "inputs": [
        {
          "internalType": "uint256",
          "name": "_actionOn",
          "type": "uint256"
        },
        {
          "internalType": "uint256",
          "name": "_quantity",
          "type": "uint256"
        }
      ],
      "name": "Reschedule",
      "outputs": [],
      "payable": false,
      "stateMutability": "nonpayable",
      "type": "function"
    },
    {
      "constant": false,
      "inputs": [
        {
          "internalType": "uint256",
          "name": "_actionOn",
          "type": "uint256"
        },
        {
          "internalType": "uint256",
          "name": "_quantity",
          "type": "uint256"
        }
      ],
      "name": "Delivered",
      "outputs": [],
      "payable": false,
      "stateMutability": "nonpayable",
      "type": "function"
    },
    {
      "constant": false,
      "inputs": [
        {
          "internalType": "enum Task.TaskStatus",
          "name": "_status",
          "type": "uint8"
        },
        {
          "internalType": "uint256",
          "name": "_actionedOn",
          "type": "uint256"
        }
      ],
      "name": "SetStatus",
      "outputs": [],
      "payable": false,
      "stateMutability": "nonpayable",
      "type": "function"
    }
  ],
  "bytecode": "0x608060405234801561001057600080fd5b50336000806101000a81548173ffffffffffffffffffffffffffffffffffffffff021916908373ffffffffffffffffffffffffffffffffffffffff1602179055506000600160146101000a81548160ff0219169083600181111561007057fe5b02179055506000600660006101000a81548160ff0219169083600181111561009457fe5b0217905550611c25806100a86000396000f3fe608060405234801561001057600080fd5b506004361061009e5760003560e01c8063bf33b65a11610066578063bf33b65a1461044e578063dc582aa71461085f578063faf8101d1461089a578063fe6b606c146108bc578063ff5fa8e7146108f45761009e565b806383197ef0146100a35780638bb397be146100ad5780638d84aa4c14610394578063b4a99a4e146103cc578063b983b52514610416575b600080fd5b6100ab610943565b005b6100b5610a22565b60405180806020018973ffffffffffffffffffffffffffffffffffffffff1673ffffffffffffffffffffffffffffffffffffffff1681526020018860018111156100fb57fe5b60ff168152602001806020018060200180602001806020018060200187810387528f818151815260200191508051906020019080838360005b8381101561014f578082015181840152602081019050610134565b50505050905090810190601f16801561017c5780820380516001836020036101000a031916815260200191505b5087810386528c818151815260200191508051906020019080838360005b838110156101b557808201518184015260208101905061019a565b50505050905090810190601f1680156101e25780820380516001836020036101000a031916815260200191505b5087810385528b818151815260200191508051906020019080838360005b8381101561021b578082015181840152602081019050610200565b50505050905090810190601f1680156102485780820380516001836020036101000a031916815260200191505b5087810384528a818151815260200191508051906020019080838360005b83811015610281578082015181840152602081019050610266565b50505050905090810190601f1680156102ae5780820380516001836020036101000a031916815260200191505b50878103835289818151815260200191508051906020019080838360005b838110156102e75780820151818401526020810190506102cc565b50505050905090810190601f1680156103145780820380516001836020036101000a031916815260200191505b50878103825288818151815260200191508051906020019080838360005b8381101561034d578082015181840152602081019050610332565b50505050905090810190601f16801561037a5780820380516001836020036101000a031916815260200191505b509e50505050505050505050505050505060405180910390f35b6103ca600480360360408110156103aa57600080fd5b810190808035906020019092919080359060200190929190505050610eb8565b005b6103d46110d5565b604051808273ffffffffffffffffffffffffffffffffffffffff1673ffffffffffffffffffffffffffffffffffffffff16815260200191505060405180910390f35b61044c6004803603604081101561042c57600080fd5b8101908080359060200190929190803590602001909291905050506110fe565b005b61085d60048036036101a081101561046557600080fd5b810190808035906020019064010000000081111561048257600080fd5b82018360208201111561049457600080fd5b803590602001918460018302840111640100000000831117156104b657600080fd5b91908080601f016020809104026020016040519081016040528093929190818152602001838380828437600081840152601f19601f820116905080830192505050505050509192919290803573ffffffffffffffffffffffffffffffffffffffff169060200190929190803560ff1690602001909291908035906020019064010000000081111561054657600080fd5b82018360208201111561055857600080fd5b8035906020019184600183028401116401000000008311171561057a57600080fd5b91908080601f016020809104026020016040519081016040528093929190818152602001838380828437600081840152601f19601f820116905080830192505050505050509192919290803590602001906401000000008111156105dd57600080fd5b8201836020820111156105ef57600080fd5b8035906020019184600183028401116401000000008311171561061157600080fd5b91908080601f016020809104026020016040519081016040528093929190818152602001838380828437600081840152601f19601f8201169050808301925050505050505091929192908035906020019064010000000081111561067457600080fd5b82018360208201111561068657600080fd5b803590602001918460018302840111640100000000831117156106a857600080fd5b91908080601f016020809104026020016040519081016040528093929190818152602001838380828437600081840152601f19601f820116905080830192505050505050509192919290803560ff169060200190929190803590602001909291908035906020019092919080359060200190929190803590602001909291908035906020019064010000000081111561074057600080fd5b82018360208201111561075257600080fd5b8035906020019184600183028401116401000000008311171561077457600080fd5b91908080601f016020809104026020016040519081016040528093929190818152602001838380828437600081840152601f19601f820116905080830192505050505050509192919290803590602001906401000000008111156107d757600080fd5b8201836020820111156107e957600080fd5b8035906020019184600183028401116401000000008311171561080b57600080fd5b91908080601f016020809104026020016040519081016040528093929190818152602001838380828437600081840152601f19601f820116905080830192505050505050509192919290505050611319565b005b6108986004803603604081101561087557600080fd5b81019080803560ff169060200190929190803590602001909291905050506115c0565b005b6108a261180d565b604051808215151515815260200191505060405180910390f35b6108f2600480360360408110156108d257600080fd5b81019080803590602001909291908035906020019092919050505061183c565b005b6108fc611a47565b6040518087600481111561090c57fe5b60ff168152602001868152602001858152602001848152602001838152602001828152602001965050505050505060405180910390f35b6000809054906101000a900473ffffffffffffffffffffffffffffffffffffffff1673ffffffffffffffffffffffffffffffffffffffff163373ffffffffffffffffffffffffffffffffffffffff16146109e8576040517f08c379a000000000000000000000000000000000000000000000000000000000815260040180806020018281038252602e815260200180611bc3602e913960400191505060405180910390fd5b6000809054906101000a900473ffffffffffffffffffffffffffffffffffffffff1673ffffffffffffffffffffffffffffffffffffffff16ff5b60606000806060806060806060600180811115610a3b57fe5b600160149054906101000a900460ff166001811115610a5657fe5b14610ac9576040517f08c379a00000000000000000000000000000000000000000000000000000000081526004018080602001828103825260158152602001807f5461736b206e6f7420696e697469616c6973656421000000000000000000000081525060200191505060405180910390fd5b60028054600181600116156101000203166002900480601f016020809104026020016040519081016040528092919081815260200182805460018160011615610100020316600290048015610b5f5780601f10610b3457610100808354040283529160200191610b5f565b820191906000526020600020905b815481529060010190602001808311610b4257829003601f168201915b50505050509750600160009054906101000a900473ffffffffffffffffffffffffffffffffffffffff169650600660009054906101000a900460ff16955060038054600181600116156101000203166002900480601f016020809104026020016040519081016040528092919081815260200182805460018160011615610100020316600290048015610c335780601f10610c0857610100808354040283529160200191610c33565b820191906000526020600020905b815481529060010190602001808311610c1657829003601f168201915b5050505050945060048054600181600116156101000203166002900480601f016020809104026020016040519081016040528092919081815260200182805460018160011615610100020316600290048015610cd05780601f10610ca557610100808354040283529160200191610cd0565b820191906000526020600020905b815481529060010190602001808311610cb357829003601f168201915b5050505050935060058054600181600116156101000203166002900480601f016020809104026020016040519081016040528092919081815260200182805460018160011615610100020316600290048015610d6d5780601f10610d4257610100808354040283529160200191610d6d565b820191906000526020600020905b815481529060010190602001808311610d5057829003601f168201915b5050505050925060078054600181600116156101000203166002900480601f016020809104026020016040519081016040528092919081815260200182805460018160011615610100020316600290048015610e0a5780601f10610ddf57610100808354040283529160200191610e0a565b820191906000526020600020905b815481529060010190602001808311610ded57829003601f168201915b5050505050915060088054600181600116156101000203166002900480601f016020809104026020016040519081016040528092919081815260200182805460018160011615610100020316600290048015610ea75780601f10610e7c57610100808354040283529160200191610ea7565b820191906000526020600020905b815481529060010190602001808311610e8a57829003601f168201915b505050505090509091929394959697565b6000809054906101000a900473ffffffffffffffffffffffffffffffffffffffff1673ffffffffffffffffffffffffffffffffffffffff163373ffffffffffffffffffffffffffffffffffffffff1614610f5d576040517f08c379a000000000000000000000000000000000000000000000000000000000815260040180806020018281038252602e815260200180611bc3602e913960400191505060405180910390fd5b600180811115610f6957fe5b600160149054906101000a900460ff166001811115610f8457fe5b14610ff7576040517f08c379a00000000000000000000000000000000000000000000000000000000081526004018080602001828103825260128152602001807f5461736b206e6f74207363686564756c6564000000000000000000000000000081525060200191505060405180910390fd5b80600d600082825401925050819055507f8a529ae4ee11eb4cde46982ce654de7d45969118e8db3fd279b6438583e7d9f86002828460405180806020018481526020018381526020018281038252858181546001816001161561010002031660029004815260200191508054600181600116156101000203166002900480156110c15780601f10611096576101008083540402835291602001916110c1565b820191906000526020600020905b8154815290600101906020018083116110a457829003601f168201915b505094505050505060405180910390a15050565b60008060009054906101000a900473ffffffffffffffffffffffffffffffffffffffff16905090565b6000809054906101000a900473ffffffffffffffffffffffffffffffffffffffff1673ffffffffffffffffffffffffffffffffffffffff163373ffffffffffffffffffffffffffffffffffffffff16146111a3576040517f08c379a000000000000000000000000000000000000000000000000000000000815260040180806020018281038252602e815260200180611bc3602e913960400191505060405180910390fd5b6001808111156111af57fe5b600160149054906101000a900460ff1660018111156111ca57fe5b1461123d576040517f08c379a00000000000000000000000000000000000000000000000000000000081526004018080602001828103825260128152602001807f5461736b206e6f74207363686564756c6564000000000000000000000000000081525060200191505060405180910390fd5b8160098190555080600b819055507fa44eccd2c729e4c0f0c88952c7d842d9e4f9617fed846408b59c9c8a0764f9416002828460405180806020018481526020018381526020018281038252858181546001816001161561010002031660029004815260200191508054600181600116156101000203166002900480156113055780601f106112da57610100808354040283529160200191611305565b820191906000526020600020905b8154815290600101906020018083116112e857829003601f168201915b505094505050505060405180910390a15050565b6000809054906101000a900473ffffffffffffffffffffffffffffffffffffffff1673ffffffffffffffffffffffffffffffffffffffff163373ffffffffffffffffffffffffffffffffffffffff16146113be576040517f08c379a000000000000000000000000000000000000000000000000000000000815260040180806020018281038252602e815260200180611bc3602e913960400191505060405180910390fd5b600060018111156113cb57fe5b600160149054906101000a900460ff1660018111156113e657fe5b14611459576040517f08c379a000000000000000000000000000000000000000000000000000000000815260040180806020018281038252601e8152602001807f5461736b2068656164657220697320616c726561647920617369676e6564000081525060200191505060405180910390fd5b8c6002908051906020019061146f929190611b1d565b508b600160006101000a81548173ffffffffffffffffffffffffffffffffffffffff021916908373ffffffffffffffffffffffffffffffffffffffff1602179055508a600660006101000a81548160ff021916908360018111156114cf57fe5b021790555089600390805190602001906114ea929190611b1d565b508860049080519060200190611501929190611b1d565b508760059080519060200190611518929190611b1d565b5086600160156101000a81548160ff0219169083600481111561153757fe5b02179055508560098190555084600a8190555083600b8190555082600c819055506000600d819055508160079080519060200190611576929190611b1d565b50806008908051906020019061158d929190611b1d565b5060018060146101000a81548160ff021916908360018111156115ac57fe5b021790555050505050505050505050505050565b6000809054906101000a900473ffffffffffffffffffffffffffffffffffffffff1673ffffffffffffffffffffffffffffffffffffffff163373ffffffffffffffffffffffffffffffffffffffff1614611665576040517f08c379a000000000000000000000000000000000000000000000000000000000815260040180806020018281038252602e815260200180611bc3602e913960400191505060405180910390fd5b60018081111561167157fe5b600160149054906101000a900460ff16600181111561168c57fe5b146116ff576040517f08c379a000000000000000000000000000000000000000000000000000000000815260040180806020018281038252601a8152602001807f5461736b20686173206e6f20696e697469616c2073746174757300000000000081525060200191505060405180910390fd5b81600160156101000a81548160ff0219169083600481111561171d57fe5b02179055507f0907b8f24e5dcd14bf00e4236c0a9d82bfc01e7fd94bcc3737fba7071ce8557b6002600160159054906101000a900460ff1683604051808060200184600481111561176a57fe5b60ff1681526020018381526020018281038252858181546001816001161561010002031660029004815260200191508054600181600116156101000203166002900480156117f95780601f106117ce576101008083540402835291602001916117f9565b820191906000526020600020905b8154815290600101906020018083116117dc57829003601f168201915b505094505050505060405180910390a15050565b600060018081111561181b57fe5b600160149054906101000a900460ff16600181111561183657fe5b14905090565b6000809054906101000a900473ffffffffffffffffffffffffffffffffffffffff1673ffffffffffffffffffffffffffffffffffffffff163373ffffffffffffffffffffffffffffffffffffffff16146118e1576040517f08c379a000000000000000000000000000000000000000000000000000000000815260040180806020018281038252602e815260200180611bc3602e913960400191505060405180910390fd5b6001808111156118ed57fe5b600160149054906101000a900460ff16600181111561190857fe5b1461197b576040517f08c379a00000000000000000000000000000000000000000000000000000000081526004018080602001828103825260148152602001807f5461736b206e6f7420696e697469616c6973656400000000000000000000000081525060200191505060405180910390fd5b81600a8190555080600c819055507fa3ad20f36157ec2ab45c618cf1181d249a46caf5ce540129ab7afea76effb19660026040518080602001828103825283818154600181600116156101000203166002900481526020019150805460018160011615610100020316600290048015611a355780601f10611a0a57610100808354040283529160200191611a35565b820191906000526020600020905b815481529060010190602001808311611a1857829003601f168201915b50509250505060405180910390a15050565b600080600080600080600180811115611a5c57fe5b600160149054906101000a900460ff166001811115611a7757fe5b14611aea576040517f08c379a00000000000000000000000000000000000000000000000000000000081526004018080602001828103825260158152602001807f5461736b206e6f7420696e697469616c6973656421000000000000000000000081525060200191505060405180910390fd5b600160159054906101000a900460ff1695506009549450600a549350600b549250600c549150600d549050909192939495565b828054600181600116156101000203166002900490600052602060002090601f016020900481019282601f10611b5e57805160ff1916838001178555611b8c565b82800160010185558215611b8c579182015b82811115611b8b578251825591602001919060010190611b70565b5b509050611b999190611b9d565b5090565b611bbf91905b80821115611bbb576000816000905550600101611ba3565b5090565b9056fe4f6e6c792074686520636f6e7472616374206f776e65722063616e2063616c6c20746869732066756e6374696f6ea265627a7a72315820f16b6848908b780a6f19ef2a63be1e332940c2c4f40c28ac9aab8c8f015b9b3e64736f6c634300050c0032",
  "source": "/*\r\nTrade Control Network\r\nTask contract\r\nAuthor IAM\r\n\r\ngithub.com/tradecontrol/tc-network\r\n\r\nLicence GNU General Public License v3.0\r\nhttps://www.gnu.org/licenses/gpl-3.0.en.html\r\n\r\n*/\r\npragma solidity >=0.4.21 <=0.5.12;\r\n\r\nimport \"./mortal.sol\";\r\n\r\ncontract Task is mortal {\r\n\r\n    enum TaskStatus { Pending, Open, Closed, Charged, Cancelled }\r\n    enum TaskState { Instantiated, Initialised }\r\n    enum CashPolarity { Expense, Income }\r\n\r\n    address targetConsortium;\r\n\r\n    TaskState state;\r\n    TaskStatus status;\r\n\r\n    string taskCode;\r\n    string activityCode;\r\n    string description;\r\n    string title;\r\n\r\n    CashPolarity polarity;\r\n    string unitOfMeasure;\r\n    string unitOfCharge;\r\n\r\n    uint actionOn; // Unix Epoch\r\n    uint unitCharge; // 1 = 0.00001\r\n    uint quantityOrdered; // 1 = 0.001\r\n    uint taxRate; // 1 = 0.001\r\n    uint quantityDelivered;\r\n\r\n    event OnPriceChange(string taskCode);\r\n    event OnRescheduled(string taskCode, uint quantity, uint actionOn);\r\n    event OnDelivery(string taskCode, uint quantity, uint actionedOn);\r\n    event OnStatusChange(string taskCode, TaskStatus status, uint actionedOn);\r\n\r\n    //initialise\r\n    constructor () public {\r\n        state = TaskState.Instantiated;\r\n        polarity = CashPolarity.Expense;\r\n    }\r\n\r\n    function Owner() public view returns (address eoa) { return owner; }\r\n\r\n    function Initialise(string memory _taskCode, address _targetConsortium,\r\n            CashPolarity _polarity, string memory _activityCode, string memory _description, string memory _title,\r\n            TaskStatus _status, uint _actionOn, uint _unitCharge, uint _quantity, uint _taxRate,\r\n            string memory _unitOfMeasure, string memory _unitOfCharge) public onlyOwner {\r\n        require(state == TaskState.Instantiated, \"Task header is already asigned\");\r\n        taskCode = _taskCode;\r\n        targetConsortium = _targetConsortium;\r\n        polarity = _polarity;\r\n        activityCode = _activityCode;\r\n        description = _description;\r\n        title = _title;\r\n        status = _status;\r\n        actionOn = _actionOn;\r\n        unitCharge = _unitCharge;\r\n        quantityOrdered = _quantity;\r\n        taxRate = _taxRate;\r\n        quantityDelivered = 0;\r\n        unitOfMeasure = _unitOfMeasure;\r\n        unitOfCharge = _unitOfCharge;\r\n        state = TaskState.Initialised;\r\n    }\r\n\r\n    function IsInitialised() public view returns (bool isInitialised) { return (state == TaskState.Initialised); }\r\n\r\n    // ** properties **\r\n    function GetHeader() public view returns\r\n        (string memory _taskCode, address _targetConsortium, CashPolarity _polarity,\r\n            string memory _activityCode, string memory _description, string memory _title,\r\n            string memory _unitOfMeasure, string memory _unitOfCharge) {\r\n        require (state == TaskState.Initialised, \"Task not initialised!\");\r\n        _taskCode = taskCode;\r\n        _targetConsortium = targetConsortium;\r\n        _polarity = polarity;\r\n        _activityCode = activityCode;\r\n        _description = description;\r\n        _title = title;\r\n        _unitOfMeasure = unitOfMeasure;\r\n        _unitOfCharge = unitOfCharge;\r\n    }\r\n\r\n    function GetSchedule() public view returns\r\n        (TaskStatus _status, uint _actionOn, uint _unitCharge, uint _quantityOrdered, uint _taxRate, uint _quantityDelivered)\r\n    {\r\n        require (state == TaskState.Initialised, \"Task not initialised!\");\r\n        _status = status;\r\n        _actionOn = actionOn;\r\n        _unitCharge = unitCharge;\r\n        _quantityOrdered = quantityOrdered;\r\n        _taxRate = taxRate;\r\n        _quantityDelivered = quantityDelivered;\r\n   }\r\n\r\n    // ** process task **\r\n    function PriceChange(uint _unitCharge, uint _taxRate) public onlyOwner {\r\n        require (state == TaskState.Initialised, \"Task not initialised\");\r\n        unitCharge = _unitCharge;\r\n        taxRate = _taxRate;\r\n        emit OnPriceChange(taskCode);\r\n    }\r\n\r\n    function Reschedule(uint _actionOn, uint _quantity) public onlyOwner {\r\n        require (state == TaskState.Initialised, \"Task not scheduled\");\r\n        actionOn = _actionOn;\r\n        quantityOrdered = _quantity;\r\n        emit OnRescheduled(taskCode, _quantity, _actionOn);\r\n    }\r\n\r\n    function Delivered(uint _actionOn, uint _quantity) public onlyOwner {\r\n        require (state == TaskState.Initialised, \"Task not scheduled\");\r\n        quantityDelivered += _quantity;\r\n        emit OnDelivery(taskCode, _quantity, _actionOn);\r\n    }\r\n\r\n    function SetStatus(TaskStatus _status, uint _actionedOn) public onlyOwner  {\r\n        require (state == TaskState.Initialised, \"Task has no initial status\");\r\n        status = _status;\r\n        emit OnStatusChange(taskCode, status, _actionedOn);\r\n    }\r\n\r\n}",
  "sourcePath": "E:/company/trade control/apps/repos/tc-network/src/tcNetwork/solidity/contracts/Task.sol",
  "compiler": {
    "name": "solc",
    "version": "0.5.12+commit.7709ece9.Emscripten.clang"
  },
  "schemaVersion": "3.0.19",
  "updatedAt": "2020-05-02T14:05:01.610Z",
  "networkType": "ethereum",
  "devdoc": {
    "methods": {}
  },
  "userdoc": {
    "methods": {}
  }
}